:020000040000FA
:060000000CEF3FF01200BE
:0600080004EF08F01200F5
:060018000CEF08F01200DD
:061000000CEF3FF01200AE
:0610080028EF08F01200C1
:06101800B9EF08F0120020
:06102A000300987E0000A7
:10103000AA0100003F000000967E0000F7010000BA
:1010400002000000E5780000F90100000100000046
:10105000DACFE4FFE2CFDAFFE9CFE4FFEACFE4FF43
:10106000F6CFE4FFF7CFE4FFF5CFE4FFF3CFE4FFE3
:10107000F4CFE4FFFACFE4FF00EE3CF0140EE804F6
:1010800003E3EECFE4FFFBD700EE00F03C0EE804F4
:1010900003E3EECFE4FFFBD7E652F2A421D089AC04
:1010A00010D042C150F043C151F0FF0ED8805056CD
:1010B00051565050010140255C6F515041215D6FE8
:1010C00009D040C15CF141C15DF10101FF0ED88042
:1010D0005C575D575DC1D7FF5CC1D6FF897CF29438
:1010E0009EA021D08BA010D050C150F051C151F022
:1010F000FF0ED88050565156505001014E255C6F5E
:1011000051504F215D6F09D04EC15CF14FC15DF16F
:101110000101FF0ED8805C575D575DC1CFFF5CC1F8
:10112000CEFF8B709E90DAEC1DF0E55200EE3BF0A6
:101130003C0EE80403E3E5CFEDFFFBD700EE4FF0F4
:10114000140EE80403E3E5CFEDFFFBD7E5CFFAFF8C
:10115000E5CFF4FFE5CFF3FFE5CFF5FFE5CFF7FFF0
:10116000E5CFF6FFE5CFEAFFE5CFE9FFE5CFDAFF10
:101170001100D8CFE4FFE0CFE4FFE46EDACFE4FF64
:10118000E652A1A226D0640E01017027000E712341
:10119000100E705D270E715917E3100E705F270E49
:1011A000715B6F2B3C0E6F5D0CE36F6B6E2B3C0E17
:1011B0006E5D07E36E6B6D2B180E6D5D02E36D6B5C
:1011C0006C2B0101010EBC6FC50EB36E680EB26EC2
:1011D000A192E552E5CFDAFFE550E5CFE0FFE5CF9C
:1011E000D8FF1000E66ABDEC3EF0E552E66ABDECC1
:1011F0003EF0E552E66ABDEC3EF0E552E66ABDEC33
:101200003EF0E552E66ABDEC3EF0E552C2EC10F06D
:10121000020EE66E25EC13F0E55237EC22F0010EDB
:10122000E66EB9EC32F0E552430EE66E710EE66EF4
:10123000ADEC32F0E552E552C8EC10F0010EE66E6E
:10124000B9EC32F0E552220EE66E710EE66EADECB0
:1012500032F0E552E552E66ABDEC3EF0E552E66A50
:10126000BDEC3EF0E552E66ABDEC3EF0E552E66AC2
:10127000BDEC3EF0E552B00EE66EBDEC3EF0E55240
:10128000010EE66EB9EC32F0E5520D0EE66E710E0F
:10129000E66EADEC32F0E552E5529AEC31F09BD9B6
:1012A000E3D801019D5103E140EC11F0B0D0010100
:1012B000BD510BE10101010EBD6F6ADAE66A25EC52
:1012C00013F0E55298EC39F0A2D00101BC5101E1D4
:1012D0009CD00101BB51020A6BE0030A3AE0010A0B
:1012E00001E068D0B70EE66E010EE66EB30EE66E54
:1012F000010EE66E76C1F6FF77C1F7FF140EF626F3
:10130000000EF7220900F5CFE6FF0900F5CFE6FF52
:101310000900F5CFE6FF0800F5CFE6FF76C1F6FF3E
:1013200077C1F7FF100EF626000EF7220900F5CF61
:10133000E6FF0900F5CFE6FF0900F5CFE6FF08005C
:10134000F5CFE6FFC5EC0FF0006E0C0EE15E00502D
:1013500034D0B70EE66E010EE66EB30EE66E010EE9
:10136000E66E78C1E9FF79C1EAFF140EE926000EA6
:10137000EA22EECFE6FFEECFE6FFEECFE6FFEFCFBD
:10138000E6FF78C1E9FF79C1EAFF100EE926000EF9
:10139000EA22EECFE6FFEECFE6FFEECFE6FFEFCF9D
:1013A000E6FFC5EC0FF0006E0C0EE15E005005D0BC
:1013B000000003D00101BB6B00D0B7C1E6FFB8C18C
:1013C000E6FFB9C1E6FFBAC1E6FFB3C1E6FFB4C1AB
:1013D000E6FFB5C1E6FFB6C1E6FF2CDA006E080EE7
:1013E000E15E0050000906E1030EE66E25EC13F005
:1013F000E55208D0030E0101B25D04E1E66A25EC76
:1014000013F0E55206D80101BC6BEDEC13F045D7A3
:101410001200FE0EFBEC16F0C80EBFEC14F06DC10E
:1014200043F0F5EC16F06DC143F00DEC16F0010140
:101430006D5D60EC17F06EC143F0F5EC16F06EC117
:1014400043F00DEC16F001016E5D60EC17F06FC11A
:1014500043F0F5EC16F06FC143F00DEC16F001010E
:101460006F5D300FFBEF16F038EC15F0020EE12641
:10147000200E0001605D01E2A7D06D50020B01E07B
:10148000A3D00001965101E09FD0400EE66E000E01
:10149000E66E010EE66E0AEC31F0E552E552E552D9
:1014A000DF6EDF5001E190D0010EDB6ADF50F36E9A
:1014B000010EDBCFF4FFF350F45C01E385D00101B2
:1014C000DE51010A0EE0010A01E07AD08CEC15F041
:1014D000EFCFDFF140EC15F00101E06B010EDE6FA4
:1014E00070D0DF51420A2BE0030A68E18CEC15F062
:1014F000EF50200829E1E02BE0050BE113EC15F09B
:1015000040C0CEF141C0CFF142C0D0F143C0D1F1D3
:1015100040D0020EE05D55E113EC15F040C0D2F171
:1015200041C0D3F142C0D4F143C0D5F10101BE0E98
:10153000786F010E796F0101010EBB6F3ED08CEC0C
:1015400015F0EF50200818E0010EE66EE66ADB5059
:10155000016A000F006E010E012200C0E6FF01C00B
:10156000E6FF9E0EE66E010EE66EAAEC3BF0026E02
:10157000060EE15E025025D0E02BE0050DE113ECF4
:1015800015F040C0B3F141C0B4F142C0B5F143C061
:10159000B6F140EC15F015D0020EE05D12E113EC4F
:1015A00015F040C0B7F141C0B8F142C0B9F143C035
:1015B000BAF10101020EBB6F010EBC6FDE6B01D0F0
:1015C000DE6B010EDB2A72D7020EE15C02E2E16AF9
:1015D000E55225EF15F038EC15F0070EE126D9504D
:1015E000010FE96EDACFEAFF540EEE6E450EEE6E95
:1015F000530EEE6E540EEE6EEE6A040EEE6E81B475
:1016000048D0F1EC32F0DF6EDF5043E00101E151F0
:10161000030A36E0010A26E0030A0BE0010A37E17B
:101620000101D950010FA86FDACFA9F10101010E14
:10163000E16FA8C1E9FFA9C1EAFFEF50DF5CE1E17A
:101640000101A82B000EA923D950050F006EDACF97
:1016500001F0E850A819D5E10150A919D2E1010122
:10166000020EE16FF10EE66E700E27EC15F0AC0E77
:10167000E66E700E27EC15F00101030EE16FC1D785
:10168000300EDF5EDFCFE6FF0BD8E5520101E16BE4
:10169000B8D7070EE15C02E2E16AE55225EF15F0EA
:1016A00038EC15F0E652FE0EDB50300FE66ECAEC59
:1016B00032F0E552FE0EDB50040A5AE0070A31E030
:1016C000010A1AE0030A5CE19F0EE66E700E2AEC36
:1016D00017F0E552860EE66E700EE66EADEC32F057
:1016E000E552E55236EC33F0DF6EDF50FBE0DFCF42
:1016F000E6FFCAEC32F0F5D74C0EE66E700E2AEC1F
:1017000017F0E552F1EC32F0DF6EDF50FBE0DFCF97
:10171000E6FF79EC32F0E552DFCFE6FFCAEC32F0BB
:10172000F0D73D0EE66E700E2AEC17F0E552220E51
:10173000E66E700EE66EADEC32F0E552E552E66A0A
:10174000E66AE66AE66A2DEC17F0B40EE66E420E23
:10175000E66E2DEC17F0340EE66E430EE66E2DECC1
:1017600017F0870EE66E430EE66ED9EC14F0E7D75D
:10177000130EE66E700E27EC15F000EC08F005D0A5
:10178000FA0EE66E6F0E27EC15F0E55231EF17F00A
:1017900093C16AF194C16BF195C16CF196C16DF181
:1017A00097C16EF198C16FF199C170F19AC171F151
:1017B0008DC142F08EC143F0A4EC15F08FC143F00F
:1017C00043EC17F090C142F091C143F078EC17F070
:1017D000E0EC15F0570E0101925D0FE115EC17F0EA
:1017E000496E64C141F065C142F066C143F067C112
:1017F00044F065EC24F0E0EC15F087C142F088C1BC
:1018000043F0A4EC15F089C143F043EC17F08AC112
:1018100042F08BC143F078EC17F0E9EC15F0530E71
:1018200001018C5D06E115EC17F099EC15F0E9EC7F
:1018300015F0120038EC15F0140EE12627EC16F026
:1018400058EC15F0AEC142F0AFC143F066EC23F0A6
:1018500065EC15F0FB0EDBCF00F0FC0EDBCF01F0EA
:10186000FD0EDBCF02F0FE0EDBCF03F0B4EC16F082
:101870000BE0EAEC16F02DEC16F0420EC9EC15F078
:1018800001EC25F0010A02E1000E6CD1D950A4EC64
:1018900016F003EC17F072C146F073C147F074C143
:1018A00048F075C149F01BEC17F0E4EC14F0466AFF
:1018B000476AD8EC16F004E165EC17F035EC17F048
:1018C000E4EC14F0B4EC16F004E165EC17F01BEC5A
:1018D00017F00C0EDBCF04F00D0EDBCF05F00E0E73
:1018E000DBCF06F00F0EDBCF07F0100EDBCF08F0DA
:1018F000110EDBCF09F0120EDBCF0AF0130EDBCF97
:101900000BF008C046F009C047F00AC048F00BC011
:1019100049F06FEC16F07BEC23F099EC14F049ECF5
:1019200015F012EC24F0F1EC14F0E4EC14F0040ED9
:10193000DBCF04F0050EDBCF05F0060EDBCF06F0A3
:10194000070E2DEC15F095EC14F07BEC23F072EC07
:1019500015F0CAEC14F0D8EC16F007E10BEC15F01A
:10196000080FAAEC16F035EC17F0CAEC14F054ECA2
:1019700016F095EC14F023EC16F062E1066A076AA3
:10198000B40E086E420E096EFB0EDBCF0AF0FC0EA1
:10199000DBCF0BF0FD0EDBCF0CF0FE0EDBCF0DF03E
:1019A0000AC046F00BC047F00CC048F00DC049F02B
:1019B00006C041F007C042F008C043F009C044F03F
:1019C0007BEC23F041C002F042C003F043C004F0BE
:1019D00044C005F0A8EC15F0D2EC24F0010142500F
:1019E000525D006E43505359016E00C0DEFFDD6E44
:1019F000080EDBCF02F0090EDBCF03F00A0EDBCFBF
:101A000004F00B0EDBCF05F049EC15F002C041F0FD
:101A100003C042F004C043F005C044F065EC24F07C
:101A2000D2EC24F0010146514224006E475143207C
:101A3000016E020E00C0DBFF030E01C0DBFF4ED0C3
:101A400052C142F053C143F066EC23F099EC14F01C
:101A50000C6A0D6AB40E0E6E420E0F6EFB0EDBCFDB
:101A600010F0FC0EDBCF11F0FD0EDBCF12F0FE0EFE
:101A7000DBCF13F010C046F011C047F012C048F0A1
:101A800013C049F0B3EC14F0A8EC15F05BEC17F0C0
:101A900042C0DEFF43C0DDFF27EC16F099EC14F0E6
:101AA000080EDBCF0CF0090EDBCF0DF00A0EDBCFFA
:101AB0000EF00B0EDBCF0FF0466A476A54EC16F0BF
:101AC000B3EC14F049EC15F065EC24F05BEC17F086
:101AD000020E42C0DBFF030E43C0DBFF94EC15F0A7
:101AE000005001014E190FE101504F190CE140C1A6
:101AF00002F041C103F0020EDB50021803E1030EB5
:101B0000DB5003182EE094EC15F000504E5D0150B0
:101B10004F5903E24E2B000E4F2394EC15F04E511B
:101B2000005C4F51015803E24E07000E4F5B34EC4E
:101B300016F00050405D0150415903E2402B000E69
:101B4000412334EC16F04051005C4151015803E24E
:101B50004007000E415B290EE66EFCEC3EF0E552BC
:101B6000BDD7010E006E140EE15C02E2E16AE5529F
:101B7000E16E005031EF17F038EC15F0280EE12639
:101B80006AC143F055EC23F099EC14F0466A476AB9
:101B9000FA0E486E440E496E7CEC23F0B2EC15F060
:101BA0006BC143F055EC23F0F1EC14F06CC143F041
:101BB00055EC23F072EC15F06DC143F055EC23F0B9
:101BC00058EC15F06EC143F055EC23F065EC15F0C0
:101BD0006FC143F055EC23F0140E41C0DBFF150E2E
:101BE00042C0DBFF160E43C0DBFF170E44C0DBFF15
:101BF000416A800E426EB70E436E430E446E000E75
:101C0000DFCF46F0010EDBCF47F0020EDBCF48F00E
:101C1000030E59EC16F01CEC15F0186A196AE00E68
:101C20001A6E400E1B6ED3EC16F0EECF20F0EECF06
:101C300021F0EECF22F0EFCF23F0040EDBCF2CF01B
:101C4000050EDBCF2DF0060EDBCF2EF0070EDBCF1F
:101C50002FF03BEC16F02CC041F042EC16F07CEC7F
:101C600023F0F2EC15F0466A476A400E486E410ECA
:101C7000496E52EC15F0FBEC15F05DEC16F020C04F
:101C800041F021C042F022C043F023C044F07CEC7C
:101C900023F041C01CF042C01DF043C01EF044C000
:101CA0001FF05DEC16F0B8EC16F065EC24F03DEC9E
:101CB00015F0476A800E486E400E496E52EC15F0E2
:101CC00039EC17F0B3EC14F0416A800E426E890EC5
:101CD000436E430E446E040EDBCF46F0050EDBCFA1
:101CE00047F0060EDBCF48F0070E59EC16F041C066
:101CF00034F042C035F043C036F044C037F03BEC1E
:101D000016F052EC15F041C030F042C031F043C043
:101D100032F044C033F0C4EC14F0080EDBCF38F0DE
:101D2000090EDBCF39F00A0EDBCF3AF00B0EDBCF1A
:101D30003BF038C046F039C047F03AC048F03BC0ED
:101D400049F0E6EC16F0380E466E5A0E476E320E2B
:101D5000486E490E496E7BEC23F0180E41C0DBFF44
:101D6000190E42C0DBFF1A0E43C0DBFF1B0E44C03E
:101D7000DBFF0C0EDBCF08F00D0EDBCF09F00E0EF3
:101D8000DBCF0AF00F0EDBCF0BF0100EDBCF10F025
:101D9000110EDBCF11F0120EDBCF12F0130EDBCFE2
:101DA00013F0BDEC15F010C041F011C042F012C0AC
:101DB00043F013C044F012EC24F01CEC15F0C4EC1A
:101DC00014F0140EDBCF18F0150EDBCF19F0160E41
:101DD000DBCF1AF0170EDBCF1BF0466A476A610EA5
:101DE000486E450E496EB8EC16F012EC24F0C1ECCA
:101DF00016F086EC17F0466A476AC00E486E410E30
:101E0000496E12EC24F01C0E41C0DBFF1D0E42C0D7
:101E1000DBFF1E0E43C0DBFF1F0E44C0DBFF180EAE
:101E2000DBCF00F0190EDBCF01F01A0EDBCF02F092
:101E30001B0EDBCF03F01C0EDBCF04F01D0EDBCF3F
:101E400005F01E0EDBCF06F01F0E2DEC15F000EC9A
:101E500017F0200E41C0DBFF210E42C0DBFF220E37
:101E600043C0DBFF230E44C0DBFFF60E046E3A0EC8
:101E7000056E8C0E066E430E076E2A0E416E7E0EA8
:101E8000426EB40E436E430E446E200EDBCF46F01E
:101E9000210EDBCF47F0220EDBCF48F0230E59ECAA
:101EA00016F092EC16F086EC17F064C146F065C1AE
:101EB00047F066C148F067C149F07CEC23F0240E7E
:101EC00041C0DBFF250E42C0DBFF260E43C0DBFF17
:101ED000270E44C0DBFFFEEC14F0466A476AD8ECDC
:101EE00016F012E0240EDBCF04F0250EDBCF05F058
:101EF000260EDBCF06F0270E2DEC16F0C30EC9EC34
:101F000015F023EC16F024E1240EDBCF08F0250EAB
:101F1000DBCF09F0260EDBCF0AF0270EDBCF0BF06C
:101F2000466A476AC4EC15F0CAEC16F052EC15F09C
:101F300078EC16F0466A476AC4EC15F065EC24F0BC
:101F400099EC14F0D950240FAAEC16F035EC17F0E8
:101F5000FEEC14F0B4EC16F007E10BEC15F0240FD6
:101F6000AAEC16F01BEC17F0FEEC14F000C040F0E9
:101F700001C041F002C042F003C043F0280EE15C12
:101F800002E2E16AE55225EF15F038EC15F0100E8B
:101F9000E126CCEC15F0A4EC16F062EC14F01FEC8A
:101FA00017F0DB0E466E0F0E476E490E486E400E60
:101FB00099EC15F099EC14F0466A476A54EC16F067
:101FC00012EC24F0B2EC15F0D7DD40C000F041C0B7
:101FD00001F042C002F043C003F0EAEC16F02DEC31
:101FE00015F040C041F023EC17F07BEC23F0F1EC4E
:101FF00014F0CCEC15F0040F6EEC17F071EC17F048
:102000004BEC3EF06CEC14F023EC3EF015EC14F0CD
:102010007BEC23F099EC14F081EC16F0D950A4EC91
:1020200016F066EC16F074EC17F040C02CF041C0CE
:102030002DF042C02EF043C02FF015EC17F0496E82
:1020400040C041F042EC16F065EC24F0F2EC15F0E3
:1020500053EC17F023EC3EF0AFEC16F0E552E7CF6F
:102060002BF0E552E7CF2AF0E552E7CF29F0E55211
:10207000E7CF28F040C030F041C031F042C032F02C
:1020800043C033F09BEC16F028C041F029C042F069
:102090002AC043F02BC044F065EC24F0FBEC15F0B3
:1020A00081EC16F0E3EC36F0346E080EE15E34504D
:1020B000080E40C0DBFF090E41C0DBFF0A0E42C024
:1020C000DBFF0B0E43C0DBFF71EC17F023EC3EF09F
:1020D0006CEC14F04BEC3EF0A8DBE6EC16F081EC77
:1020E00016F072EC3EF0AFEC16F00C0E40C0DBFFC9
:1020F0000D0E41C0DBFF0E0E42C0DBFF0F0E43C0D2
:10210000DBFFD6EC15F00C0F6EEC17F0D6EC15F0EB
:10211000080F6EEC17F0CAEC14F069EC17F007E149
:102120000BEC15F0080FAAEC16F01BEC17F0F50EEF
:10213000DBCFE9FFF60EDBCFEAFF0C0EDBCFEEFFC5
:102140000D0EDBCFEEFF0E0EDBCFEEFF0F0EDBCF63
:10215000EEFFF30EDBCFE9FFF40EDBCFEAFF080E54
:10216000DBCFEEFF090EDBCFEEFF0A0EDBCFEEFF7B
:102170000B0EDBCFEEFF100EE15C02E2E16AE552EE
:1021800025EF15F00F0EC112948C83DAA2EF1DF02B
:1021900038EC15F0030EE126DE6ADD6A020EDB6A1A
:1021A00046C140F147C141F104EC16F004EC16F0D1
:1021B000B00EE66EBDEC3EF0E5520101300E506F00
:1021C000750E516F50C142F151C143F101014851A7
:1021D000405D495141594EE2E66AE3DAE552F3CFF8
:1021E00000F0F4CF01F0D3EC16F0F350EE260150DE
:1021F000ED22020EDB2A3F0EF36E020EDBCFF4FF60
:10220000F350F45CE3E3D3EC16F03F0E476E486AFC
:10221000EECF42F0EDCF43F0D4EC3EF042C0EEFF03
:1022200043C0EDFF94EC15F001010050AA5D015090
:10223000AB5908E2DECFAAF1DDCFABF140C1B0F17E
:1022400041C1B1F194EC15F0AC51005CAD510158B5
:1022500008E2DECFACF1DDCFADF140C1AEF141C15E
:10226000AFF10101402B000E4123DE6ADD6A020E50
:10227000DB6AACD7030EE15C02E2E16AE552E5D32A
:1022800038EC15F0070EE126D3EC16F0470EEE6E93
:10229000500EEE6E520EEE6E4D0EEE6E430EEE6E64
:1022A000EE6A81B6CCD136EC33F0E76E060EE7CF9E
:1022B000DBFFDB5001E1C3D1060EDB500101E41B63
:1022C000060EDB502C0809E101019C3506E29B510A
:1022D0000108000E9C5501E274D10E0E01019B19FC
:1022E00001E19C5101E185D10D0E9B1901E19C5149
:1022F00001E140D10C0E9B1901E19C5101E19FD1FC
:102300000B0E9B1901E19C5101E15FD10A0E9B1953
:1023100001E19C5101E193D1090E9B1901E19C510E
:1023200001E18DD1080E9B1901E19C5101E1DCD046
:10233000070E9B1901E19C5101E147D1060E9B1943
:1023400001E19C5101E195D0050E9B1901E19C51E1
:1023500001E13BD1040E9B1901E19C5144E0030EC5
:102360009B1901E19C5101E130D1020E9B1901E161
:102370009C5128E0010E9B1901E19C5116E09B51F4
:1023800001E05BD19C5101E058D1240EE4DAD9CFB1
:10239000E2F1DACFE3F10101E56BE5C1E4F1010E11
:1023A00001019B6F9C6B866B4AD1060EDB502408A3
:1023B00001E045D10101E56BE5C1E4F1020E010147
:1023C0009B6F3CD1E2C1E9FFE3C1EAFFEF50F36E3E
:1023D000060EDB50F35C02E09B6B9C6B0101E22B71
:1023E000000EE3232CD1060EDB50410802E09B6B6C
:1023F0009C6B300E7A5D0A0DF3CF96F1300E7B5D4B
:102400009627300E7C5D0A0DF3CF97F1300E7D5D7F
:102410009727300E7E5D0A0DF3CF98F1300E7F5D69
:102420009827300E815D996F9A6BE80E9A03F3CF6F
:102430009AF1030E9903F3509A27E80E9903F3CF0C
:1024400099F1F4509A27300E825D640DF350016AC1
:10245000F350992701509A23300E835D0A0DF350F3
:10246000006E016AF350992701509A230C0E73DA1B
:102470007ED0300E7A5D0A0DF350876F886B300E78
:102480007B5D016AE850872701508823300E7C5D10
:102490000A0DF3CF89F1300E7D5D8927300E7F5D07
:1024A0008A6F8B6BE80E8B03F3CF8BF1030E8A03DD
:1024B000F3508B27E80E8A03F3CF8AF1F4508B2771
:1024C000300E805D640DAFDB815D0A0DACDB825D9B
:1024D000006E016AE8508A2701508B230C0E3BDA0C
:1024E000060EDBCF8CF143D0300E7A5D640DF350D5
:1024F0008D6F8E6B300E7B5D0A0DF350016AF350C9
:102500008D2701508E23300E7C5D016AE8508D27A7
:1025100001508E23300E7D5D0A0DF3CF8FF1300E0A
:102520007E5D8F27300E805D906F916BE80E91037A
:10253000F3CF91F1030E9003F3509127E80E90032F
:10254000F3CF90F1F4509127300E815D640D73DB71
:10255000825D0A0D70DB835D006E016AE850902792
:10256000015091230C0EF7D9060EDBCF92F1010139
:10257000862B65D0060EDB502A081FE1300E7A5DEF
:102580000A0DF3CF95F1300E7B5D9527300E7C5D03
:102590000A0DF3CF94F1300E7D5D9427300E7E5DF1
:1025A0000A0DF3CF93F1300E7F5D93270C0ED3D934
:1025B0002A0E0101E419E56F42D0060EDB500D082A
:1025C00004E19B2B000E9C233AD0010EE66EE66AD6
:1025D000D950060FE66E000EDA20E66E7A0EE66E31
:1025E000010EE66EAAEC3BF0006E060EE15E0050B6
:1025F00026D00101E551E66EE66A8C0E006E7E0E75
:10260000016E026A00C0E6FFE66E02C0E6FF7C0EC5
:10261000E66E010EE66ED1EC3CF0036E070EE15E55
:10262000035001017C517A5D08E17D517B5D05E13C
:10263000030E865D02E3010E9D6F9B6B9C6B070E84
:10264000E15C02E2E16AE55200D2D9CFE6FFE1CFD8
:10265000D9FFFE0EDB50030A10E0010A0BE0030A6B
:1026600006E0010A01E00CD0899A89980BD089888C
:10267000899A08D08998898A05D0898A898802D060
:10268000000000D0FE0EDBCFB2F1E552E7CFD9FF5C
:102690001200938601019B6B9C6B9D6B9384938AC4
:1026A000938C938E9490929C8B90899CCA0E446FCD
:1026B000080E456F840E526F080E536F100E546F44
:1026C000030E556F54C146F155C147F1830E566F45
:1026D0000E0E576F56C148F157C149F146C140F13E
:1026E00047C141F152C14EF153C14FF15069516997
:1026F00042694369FE0E586F520E596F650E5A6F4C
:10270000410E5B6F58C14AF159C14BF15AC14CF1AE
:102710005BC14DF15C6B5D6B3B0EC16EBE0EC06E5E
:10272000939892829280EBD9EAD98A98929A929859
:10273000899A8998949E9392938094949492400E4F
:10274000C76E220EC66E87EC33F0200EF26E840E3A
:10275000F16ED08E010E9D6E9F6EA082A292080E29
:10276000E66EE66AE66A6A0EE66E010E27DBC50EC5
:10277000B36E680EB26EB10EB16ECF6ACE6ACD6E18
:10278000D76AD66A820ED56EF28EF28C0101726B18
:10279000736BA00E746FC10E756F786B796B49EF18
:1027A00016F066D9020EE126FE0EDB5002E0070E9F
:1027B00001D0030EC26EC2B2FED7010EC4CFDBFF42
:1027C000C350DF6EB1D900C0F3FF01C0F4FF020EA9
:1027D000E15C02E2E16AE55238D181AE08D0010144
:1027E000E65107E1010EE66F80EC39F002D00101FD
:1027F000E66B81AC08D00101E75107E1010EE76FFC
:102800008DEC39F002D00101E76B81AA0BD00101F8
:10281000E8510AE1010EE86FBB6B3BDA0101010EE2
:10282000BC6F12000101E86B120099DA6EDA40C049
:1028300018F041C019F042C01AF043C01BF0ECDAA6
:102840002BDB52DBE552E7CF1BF0E552E7CF1AF066
:10285000E552E7CF19F0E552E7CF18F056DA40C05D
:102860001CF041C01DF042C01EF043C01FF063DAEF
:102870007FDA65EC24F085DACFDA15DB35DBE5525B
:10288000E7CF17F0E552E7CF16F0E552E7CF15F0A6
:10289000E552E7CF14F039DA40C020F041C021F012
:1028A00042C022F043C023F046DA14C041F015C004
:1028B00042F016C043F017C044F065EC24F0D9DABA
:1028C0006FEF16F0A0DA00C046F001C047F002C07A
:1028D00048F003C049F0120042DA40C008F041C09D
:1028E00009F042C00AF043C00BF0D6DA23EC3EF008
:1028F00036DAE552E7CF0BF0E552E7CF0AF0E552C2
:10290000E7CF09F0E552E7CF08F040C00CF041C036
:102910000DF042C00EF043C00FF00DDA3BDA65EC6B
:1029200024F0E6D9EED971EF17F000C041F023EFA3
:1029300017F041C000F042C001F043C002F044C0B3
:1029400003F0120044C0EDFF43C0EDFF42C0EDFFB5
:1029500041C0EFFF1200E66EE66AE66A7A0EE66EA6
:10296000010EDEEF16F00CC041F00DC042F00EC0BB
:1029700043F00FC044F07BEC23F092EF16F03BDA0B
:102980000A0E006E486E120098D904DA7CEC23F02F
:1029900078EF16F0080EDBCF00F0090EDBCF01F068
:1029A0000A0EDBCF02F00B0EDBCF03F0466A476A5C
:1029B0001200E66AE66AE66AE66A1AEC0CF0006E55
:1029C000080EE15E00501200F70EDBCF00F0F80EAB
:1029D000DBCF01F0F90EDBCF02F0FA0EDBCF03F014
:1029E0001200040E41C0DBFF050E42C0DBFF060EE5
:1029F00043C0DBFF070E44C0DBFF1200240EDBCF19
:102A000000F0250EDBCF01F0260EDBCF02F0270E03
:102A1000DBCF03F01200006A016AB40E026E430EAF
:102A2000036ED95012009E0EE66E010EE66E33EC78
:102A300034F0E552E552120041C00CF042C00DF0F6
:102A400043C00EF044C00FF01200E16E0AD2E66EF1
:102A50002AEC33F0E552E5521200DBCF07F004C058
:102A600046F005C047F006C048F007C049F0120024
:102A7000D9CFE6FFE1CFD9FF120083D9466A120011
:102A80000A0EE66EE66AE66A9E0EE66E010EDEEF5E
:102A900016F04AC146F04BC147F04CC148F04DC159
:102AA00049F0120012EC24F0D2EC24F068EF23F08D
:102AB0000C0E41C0DBFF0D0E42C0DBFF0E0E43C00B
:102AC000DBFF0F0E44C0DBFF1200100E41C0DBFF26
:102AD000110E42C0DBFF120E43C0DBFF130E44C0D9
:102AE000DBFF1200080E41C0DBFF090E42C0DBFF16
:102AF0000A0E43C0DBFF0B0E44C0DBFF12008A98B6
:102B0000010EE66EFCEC3EF0E5528A88010EE66EA0
:102B1000BDEC3EF0E5521200010EDB50EA6A000FF8
:102B2000E96E010EEA221200DECF00F0DDCF01F0E7
:102B30001200496E60C141F061C142F062C143F0D0
:102B400063C144F065EF24F066EC23F078EF16F0F3
:102B500058C146F059C147F05AC148F05BC149F02D
:102B600065EF24F041C0DEFF42C0DEFF43C0DEFF60
:102B700044C0DDFFDD52DD521200466A476A700E26
:102B8000486E420E496E1200B40E486E430E496EF6
:102B90001200496E6FEF16F0350E006EFA0E016EE0
:102BA0008E0E026E3C0E036ED9501200E00E006EC7
:102BB0002E0E016E650E026E420E036ED95012008B
:102BC00041C064F142C065F143C066F144C067F1A1
:102BD000120041C060F142C061F143C062F144C0E3
:102BE00063F1120041C028F042C029F043C02AF02E
:102BF00044C02BF0120041C024F042C025F043C075
:102C000026F044C027F01200E66ABDEC3EF0E55223
:102C1000E66ABDEC3EF0E552120028EC3FF043506E
:102C20000A0DF3501200F350016AF3508A27015045
:102C30008B23300E1200F350016AF350902701509D
:102C40009123300E12000AEC25F0010A120046C151
:102C500042F047C143F066EF23F0DBCF07F0466A4E
:102C6000476AB40E486E1200020EDBCF00F0030E6E
:102C7000DBCF01F01200466A476A100E486E410E23
:102C8000496E12002DC042F02EC043F02FC044F018
:102C900012009FEC39F0F3CF76F1F4CF77F1120008
:102CA000010EE66EB9EF32F0340E486E430E496EF7
:102CB0001200DBCF49F065EF24F041C046F042C07E
:102CC00047F043C048F044C049F01200EECFE6FFA1
:102CD000EECFE6FFEECFE6FFEFCFE6FF120004C037
:102CE00041F005C042F006C043F007C044F01200B6
:102CF00041C004F042C005F043C006F044C007F0F4
:102D0000120008D944C0E6FF1200E552E7CF07F0F1
:102D1000E552E7CF06F0E552E7CF05F0E552E7CF01
:102D200004F0120041C008F042C009F043C00AF0AC
:102D300044C00BF0120040C046F041C047F042C012
:102D400048F043C049F01200F70FE96EFF0EDA2099
:102D5000EA6E1200E96EDACFEAFF62EF14F0E55294
:102D6000E552E552E5521200466A476A69EF17F0EC
:102D700018C041F019C042F01AC043F01BC044F023
:102D8000120041C014F042C015F043C016F044C018
:102D900017F0120008C041F009C042F00AC043F029
:102DA0000BC044F01200D9CFE9FFDACFEAFF1200DE
:102DB000EBDEBBDD01EC25F0010A1200E66E90ECC3
:102DC0003BF0006E050EE15E005012007CEC23F03B
:102DD00099EF14F0FB0EDBCF04F0FC0EDBCF05F017
:102DE000FD0EDBCF06F0FE0E120028EC3FF0435044
:102DF000300FBFEF14F0E66E79EC32F0E5521200BE
:102E000094DD7CEF23F0EECF41F0EECF42F0EECF39
:102E100043F0EFCF44F0120004C0E6FF05C0E6FF28
:102E200006C0E6FF07C0E6FF1200466A476A800E4A
:102E3000486EBF0E12007CEC23F0A2EF14F065EC9C
:102E400024F0A2EF14F001C042F002C043F003C02E
:102E500044F01200FCDD50EF16F0ABDDE66AE66AE6
:102E60001200E552E7CFD9FF12007BEC23F0A2EF6E
:102E700014F041C010F042C011F043C012F044C041
:102E800013F05DEF16F055EC23F0D6DD76DE12EC94
:102E900024F048DF86EF17F040C0E6FF3BD8D9505A
:102EA00053DF66EF16F02DDFD950040FE96EDACF4D
:102EB000EAFF66EF16F01CDF00DFA2DFD2EF24F09E
:102EC000300F99DF3A0EBFEF14F0A5DD3DDF62EF62
:102ED00014F0486A496A29DD23EF16F03BDF1FEF43
:102EE00017F061DF66EF16F04BEC3EF0AFEF16F037
:102EF00066EC23F0C2DD7C0E476E120E486E490E62
:102F0000496E12EC24F0B5DF00EF17F0D6DEE7DEF5
:102F1000E6EF16F041C0E6FF42C0E6FF43C0E6FF21
:022F200012009D
:0E2F2200CDEC1CF0FB0EDBCFF3FFDB06F35013
:102F300000090AE01BEC1DF0FA0E86EC1DF0F3E12F
:102F4000011CF1E1010E01D0000EFCEF1CF0CDECF4
:102F50001CF03B0EE12402E3E168E652E16E010E53
:102F6000DB6A020EDB6AF90EDBCFF6FFFA0EDBCF6F
:102F7000F7FFFB0EDBCFF8FF0800F550DF6EDF50E8
:102F800002E120EF1CF0250EDF5C02E013EF1CF0E5
:102F9000030EDB6A040EDB6A050EDB6A060EDB6AD3
:102FA000070EDB6A35EC1CF02D0EDF5C0CE02B0EFF
:102FB000DF5C09E0200EDF5C06E0230EDF5C03E04F
:102FC000300EDF5C1AE1DF50300A14E0130A0FE024
:102FD000030A0AE00B0A05E0060AE4E1030EDB80BF
:102FE000E1D7030EDB82DED7030EDB84DBD7030ED3
:102FF000DB86D8D7030EDB88D5D72A0EDF5C1BE132
:1030000031EC1CF07FEC1CF010E0030EDB8042681A
:103010004368130EDBCF47F0140EDBCF48F066ECAD
:1030200026F0040E40C0DBFF03D0130E68EC1CF04A
:1030300035EC1CF00BD0090EDB6AD6EC1CF003E07B
:103040004AEC1DF0FAD7090E68EC1CF0030EDBB059
:10305000DB982E0EDF5C1BE135EC1CF02A0EDF5CEA
:103060000BE131EC1CF07FEC1CF003E1130EBAEC29
:103070001CF035EC1CF00BD0090EDB6AD6EC1CF012
:1030800003E04AEC1DF0FAD7090EBAEC1CF0680E0A
:10309000DF5C07E135EC1CF0680EDF5C1DE1030E20
:1030A00018D0740EDF5C17E07A0EDF5C14E0480E77
:1030B000DF5C06E0540EDF5C03E05A0EDF5C02E1E9
:1030C000020E07D06C0EDF5C03E06A0EDF5C04E1E9
:1030D000010E0DEC1DF0C9DBDF506E0A01E17FD35C
:1030E0001E0A01E192D1200A01E18FD13F0A01E1DC
:1030F00049D11A0A01E146D10D0A01E143D1200A62
:1031000001E140D13A0A01E13DD1200A01E13AD181
:10311000260A01E135D10D0A01E132D11A0A01E195
:10312000D9D0200A4AE0300A1FE0460A0EE0250AFC
:1031300001E083D3D950F90FE96EFF0EDA20EA6E71
:10314000010EEE5E000EEE5AEE5A1BEC1DF0250E3F
:10315000E66E95DB03E1011C01E169D317EC1DF07C
:1031600001E26BD3DB2A69D3080EDB6A040EDB5065
:10317000010806E2040EDB04DFEC1CF0DB508BDB05
:10318000080EDB5009E0030EDB50010B05E172DB9A
:1031900001E04DD3080EDB6A64DBEFCFDFFF8FEC7D
:1031A0001DF003E1011C01E142D317EC1DF001E326
:1031B000DB2A60DB01E141D33AD3070EDB50020882
:1031C0000FE15BEC1DF0030E22EC1DF00E0EEECFB6
:1031D000DBFF0F0EEECFDBFF100EEECFDBFF20D0BC
:1031E000F70EDBCF03F0F80EDBCF04F0020E035E28
:1031F000000E045AF70E03C0DBFFF80E04C0DBFF1D
:1032000003C0E9FF04C0EAFF12EC1DF0026A0E0ED3
:1032100000C0DBFF0F0E01C0DBFF100E02C0DBFFA2
:103220000E0EDBCFE6FF0F0EDBCFE6FF100EDBCF7F
:10323000E6FFE9EC3BF0E552E552E552130E41C0E2
:10324000DBFF140E42C0DBFF060EDB5005E0130E61
:1032500056EC1DF001E26ADB7AEC1DF002E2130E7F
:1032600037DB3DEC1DF006E0040E56EC1DF002E2EB
:10327000050E2EDB030EDBB005D0FCDA01E0D7D261
:10328000080EDB6A090EDB6A0E0EDBCFF6FF0F0EAF
:10329000DBCFF7FF100EDBCFF8FF0800F550DF6E35
:1032A000DF5014E080EC1DF011E28FEC1DF003E123
:1032B000011C01E1BCD2BBDB01E3DB2A090EDB2AE6
:1032C000D9500E0FE96E000ECBDBE7D7D3DA01E160
:1032D000B4D2ADD2C6DA110EEECFDBFF120EEDCFB7
:1032E000DBFF110EDBCFE6FF120EDBCFE6FFDBECE0
:1032F0003BF0E552E552130EF3CFDBFF140EF4CF93
:10330000DBFF060EDB5004E0130ED0DB01E20EDB28
:103310007AEC1DF002E2130EDBDAAFDB05E0040EFF
:10332000C5DB02E2050ED4DA030EDBB005D0A2DA6B
:1033300001E07DD2080EDB6A090EDB6A110EDBCFDD
:10334000E9FF120EDBCFEAFFEFCFDFFFDF5014E023
:10335000D7DB12E2E4DB03E1011C01E168D267DBA9
:1033600001E3DB2A090EDB2A110EDB2ADBCFE9FFA2
:10337000120EE8E3DB2AE6D77DDA01E15ED257D20E
:10338000030EDB8E070EDB0410E195DB040E5ADB27
:103390000A0EEECFDBFF0B0EEECFDBFF0C0EEECFF7
:1033A000DBFF0D0EEECFDBFF6CD0070EDB5003080A
:1033B0002CE1030EDBAE0DD0B2DA020E76DAEFCFDF
:1033C00000F0016A026A036A00AE39D0016802683F
:1033D00035D0F70EDBCF01F0F80EDBCF02F0020E96
:1033E000015E000E025AF70E01C0DBFFF80E02C0AC
:1033F000DBFF01C0E9FF02C0EAFFEFCF00F00A0ED9
:1034000000C0DBFF0B0EDB6A38D0070EDB50020872
:1034100009E1030EDBAE04D059DB02AE10D00ED0B2
:1034200055DB0DD0030EDBAE12D079DA020E3DDA99
:10343000F9DA026A036A01AE02D002680368E2DACE
:103440000C0E02C0DBFF0D0E03C0DBFF1AD0F70E1F
:10345000DBCF02F0F80EDBCF03F0020E025E000EAF
:10346000035AF70E02C0DBFFF80E03C0DBFF02C0F9
:10347000E9FF03C0EAFFD6DAC5DA0C0EDB6A0D0EEF
:10348000DB6A060EDB5005E1010EF36E050EF3CF8D
:10349000DBFF150EDB6A160EDB6AD950370F006EA4
:1034A000000EDA20016E390E00C0DBFF3A0E01C0BB
:1034B000DBFF380EDB6A080EDB6A0A0EAEDADF507D
:1034C000780A12E0200A10E0280A0CE0200A0AE03C
:1034D0003F0A06E00D0A02E0200A08E1020E05D0CC
:1034E000080E03D0080EDF26100E97DA030EDBBE9F
:1034F00002D0DB92DB94DB50800B24E08ADAD89098
:10350000030EEB50000A08E6000EEE5C000EEE58CB
:10351000000EEE58000EEE5815E213DA45684668C4
:1035200047684868B8EC3DF00A0E3CC0DBFF0B0E64
:103530003DC0DBFF0C0E3EC0DBFF0D0E3FC0DBFFCE
:103540002D0E08D0030EDBA202D02B0E03D0DBA47D
:1035500008D0200EF36E170EF3CFDBFF150EDB2A1B
:1035600002D0170EDB6A050EDB5003E1B7D901E18B
:1035700089D06C0E006E7E0E016E000E026E070E7C
:10358000DBCF03F0046A056A066A03C045F004C095
:1035900046F005C047F006C048F0D3D999EC3EF09C
:1035A00000503C24F36E01503D20F46E02503E204A
:1035B000F86EF4CFF7FFF3CFF6FF0800090EF5CF52
:1035C000DBFF580EDF5C0FE1610EF36E090E7BD955
:1035D0000AE3200E006E090EDBCFE7FF0050E75E26
:1035E000090EE7CFDBFF070EDBCF00F0016A026AAE
:1035F000036A0FDA00C045F001C046F002C047F090
:1036000003C048F0EECF40F0EECF41F0EECF42F0F5
:10361000EFCF43F099EC3EF043C0EDFF42C0EDFF29
:1036200041C0EDFF40C0EFFF390EDBCFE9FFDB0605
:103630003A0EDBCFEAFF01E2DB06090EDBCFEFFF3C
:10364000150EDB2A4BD995E1030EDBA61DD06F0EBC
:10365000DF5C06E1C1D918E3150EDB285BDA14D074
:10366000780EDF5C09E0580EDF5C06E0620EDF5C7E
:1036700003E0420EDF5C08E1020EF36E160EF3CF9C
:10368000DBFF02D0150EDB6A030EDB50100B0EE0E1
:10369000040EDBCF00F0050EDB50D880005406E2AC
:1036A000060EDB5003E1040EDB5034DA95D90AE252
:1036B000050EDBCFE7FF150EDB50E75E050EE7CF0B
:1036C000DBFF02D0050EDB6A040EDBCF00F0160E26
:1036D00045D9D880005414E2160EDBCFE6FF150E54
:1036E000DBCFE6FF040EDBCFE6FF050EDB50E55235
:1036F000E75CE552D880E754E552D880E7545FD9BB
:10370000030EDB50010B0BE1080EDB5008E0B2D8D2
:1037100001E08DD0080EDB50BED8080EDB6A170E14
:10372000DB5007E088D9170EF1D903E1011C01E154
:103730007ED0160EDB5016E07ED9300EE66E9FD896
:1037400002E1011C74E077D9DFCFE6FF76EC3DF0B3
:10375000E552E552E552F4CF01F00001F31C02E11D
:10376000011C65E0050EDBCF00F0160EDB50D880A3
:10377000005409E2050EDBCFE7FF160EDB50E75ED3
:10378000050EE7CFDBFF300EE66E050ECBD94FE11D
:10379000390EDB2ADBCFE9FF3A0E01E3DB2ADBCF70
:1037A000EAFF090EEFCFDBFFDB500EE044D9090E34
:1037B000ADD902E1011C3BE0390EDB2ADBCFE9FF8A
:1037C0003A0EEDE3DB2AEBD755D831E1160EDBCF0D
:1037D000E6FF080EC3D8E552E7245DD82ED0070EC9
:1037E000DB50030A1CE0010A14E0030A07E07BD95E
:1037F000DBCFEEFF020EDBCFEDFF1FD0F5D8056A61
:1038000003AE02D0046805682CD8BCD805C0EEFF12
:1038100014D0EAD803BE046824D8B4D80ED063D933
:10382000DBCFEFFF0AD07BD905E1011C03E1F36890
:10383000F46810D0FCD801E3DB2A79D9BCEF17F08B
:10384000010EDBCF00F0020EDBCF01F000C0F3FF72
:1038500001C0F4FF3B0EE15C02E2E16AE552E16E79
:10386000CBD029D9020E22EF1DF061D90800F55006
:10387000DF6E1200200EE66E080E92EF1DF076EC61
:103880003DF0E552E552E552F3CF00F0F4CF01F000
:103890000001F31C1200006E016AD950010F4DD9CE
:1038A0000050EE260150ED221200045E000E055A73
:1038B000F70E04C0DBFFF80E05C0DBFF04C0E9FF14
:1038C00005C0EAFF1200DBCFF4FFF350F45C1200F6
:1038D000DB50E76E040EE7CFDBFF12000A0EDBCFF2
:1038E00000F00B0EDBCF01F00C0EDBCF02F00D0E63
:1038F000DBCF03F000500110021003101200130E72
:10390000EECFDBFF140EEDCFDBFF130EDBCF00F0AD
:10391000140EDBCF01F00001800E01141200F70E2F
:10392000DBCF04F0F80EDBCF05F01200050EDB5004
:10393000E66ED950130F01D9E552E750EE6EED6AED
:1039400012000A0EDBCF40F00B0EDBCF41F00C0E65
:10395000DBCF42F00D0EDBCF43F01200DBCFE6FFF2
:10396000150EDBCFE6FF050EDB50E552E724E552EE
:10397000E7241200DB50CED8010EF36E060EF3CF13
:10398000DBFF1200EE50EFCFEAFFE96E02C0EEFF60
:1039900003C0EEFF04C0EEFF1200D9CFE6FFDACF7E
:1039A000E6FFE1CFD9FFE2CFDAFF1200DFCFE6FF7B
:1039B000E66AEAEC3EF0E552E552F3501200E76E9B
:1039C000080EE7CFDBFF1200EECF00F0EECF01F0E4
:1039D000EFCF02F0036A1200050EDBCF00F0150EE8
:1039E000DB50D88000541200010EDBCF02F0020E33
:1039F000DBCF03F0046A1200E552E5CFDAFFE7CF30
:103A0000D9FF12000A0E00C0DBFF0B0E01C0DBFF66
:103A10001200D9500A0F9DEF1DF0F36E070EF3CF81
:103A2000DBFF1200EECF00F0EFCF01F01200010E2D
:103A3000DB2A020E1200FC0EDBCFE6FFFD0EDBCF11
:103A4000E6FF1200005E000E015AF70E00C0DBFF19
:103A5000F80E01C0DBFF00C0E9FF01C0EAFF120061
:103A6000DA20EA6EEF2AEECFF6FF000EEF22EECF5D
:103A7000F7FFEF22EECFF8FF1200040EDBCFE6FFD8
:103A8000130EDB50E552E75C9ADFDB5004DF060ED5
:103A9000DB501200090EDB500A0DF350DF24D00F6B
:103AA000E76E090EE7CFDBFF35EF1CF0DB50F36E5E
:103AB000050E63EF1CF0F70EDBCF00F0F80EDBCF46
:103AC00001F01200DFCFE6FF3FEF1CF028DF030E0E
:103AD000ECDEE4EF1CF091EC17F0E552E552E55214
:103AE000E55200091200BDDEEE50EFCFEAFFE96EAD
:103AF000010E1200130EDB50F36E040E63EF1CF088
:103B0000040EDB50F36E090E63EF1CF0DBCFE6FF13
:103B10003FEF1CF0E76E050EE7CFDBFF12008BDFF7
:103B200062EF1DF0DBCFE6FF86DF6BEF1DF0D950B3
:103B3000F90FE96EFF0E30EF1DF0E96E000EDA208E
:043B4000EA6E120017
:0C3B4400B0EC22F06A6A686A6D8C6D9C1F
:103B50006E6A8EEC22F0DF6ADF50006E016A100E92
:103B6000005C000E015810E2DF50040DF3CFE9FFB6
:103B7000F4CFEAFF000EE926040EEA22EE6AEE6AAE
:103B8000EE6AEE6ADF2AE8D7160E706E68A604D0D9
:103B9000030E53EC22F0FAD700017B6B806B816B34
:103BA000826B6D98080E6F6F040E706F616B606BA7
:103BB000B3EF22F0B0EC22F0A19A0001600507E11A
:103BC0006DBA05D0686A69806988020E606F6850B6
:103BD000040B07E06950040B04E0020E53EC22F0E2
:103BE00087D86DB266D06850010B14E06950010BA4
:103BF00011E0A8DF0001040E606F0401400E026FA7
:103C0000040E036F080E016F006B8C0E0013E66A42
:103C100011EC23F06850100B07E06950100B04E022
:103C20005ED8040E53EC22F06850400B0BE0695054
:103C3000400B08E0D8EC22F0020E5BEC22F0060EFE
:103C400053EC22F06850200B04E06950200B01E097
:103C500032D86850020B0AE06950020B07E0D8EC3A
:103C600022F0E668E66837EC23F06A6A040E000189
:103C7000605D1FE369A61DD0DF6A040EDF5C19E2F8
:103C800068A617D06CCF88F0030E53EC22F0780EA4
:103C90000001881502E138D80AD0000EE66EE66A07
:103CA000880EE66E000EE66E010E5BEC22F0DF2A57
:103CB000E4D7B3EF22F070A00FD077EC22F0EF50F2
:103CC000800809E156EC22F0EF50840804E177EC1B
:103CD00022F08C0EEF6E7090050E53EF22F0698487
:103CE000040EE1DB6D8297EC22F0040E5BEF22F014
:103CF0006D9297EC22F0030EDEDB699468A403D08A
:103D0000020ED1DBFBD71200FD0E0001881519E170
:103D10007E0E8815E8407F0B040DF3CF63F0F4CFDF
:103D200064F0000E6327040E642363C065F064C072
:103D300066F0657528EC23F002E1A7EF1EF0B9EFFD
:103D40001EF0FD0E8815040801E11BD81200AEDB41
:103D5000EF50800B02E0AADBEF6A0001776B786B13
:103D60007C6B7D6B7B6B99D8E2DB170EA4DB80EF5D
:103D700020F0020E0001785D02E10AEF21F0EEEF83
:103D80001EF0B0EC22F092DBEF50400B01E0010E90
:103D9000DF6E00016F75080E605D09E142C46EFFC1
:103DA0006E50000802E2100E01D0040E606F78051C
:103DB00013E11AEC23F0DCD9020E0001775D03E178
:103DC00075DB840E07D0DF5003E170DBC80E02D034
:103DD0006DDB880EEF6E01D001D8C5D30CEC23F05B
:103DE000030EE126020E0001785D2DE16D50100BEF
:103DF0002AE07DDBEE52EF50006E016A080E0018DB
:103E000022E1015020E128EC23F01DE1E6DBEF5038
:103E1000800B19E1E2DB00EC23F0DF6ADF50006E7B
:103E2000016A080E005C000E015822E2DF50A9DB97
:103E3000DF50EA6A400FE96E040EEA22E552E750CD
:103E4000EF6EDF2AEBD7786BE1DBEF6A040E6F19B8
:103E5000006E70C001F0010E00C0DBFF020E70C0EA
:103E6000DBFF010EDBCFE9FF020EDBCFEAFFEF6ADB
:103E7000000180AF0CD08351841107E005D084C0CD
:103E8000FAFF00018351F96EFADF0001809F030EF3
:103E9000E15C02E2E16AE5521BD304014051600B90
:103EA000E842E842E842E842E842000901E0120044
:103EB00041510C0A45E00B0A3FE00C0A31E0010ACF
:103EC00022E00B0A1EE0020A1CE0030A18E0080ABE
:103ED00010E0010A0CE00F0A08E0030A01E01200FA
:103EE00000017B8F080E606F120001EF20F063EF7E
:103EF00021F00001610E796F000E7A6F0CD042EF55
:103F000020F0A1EF1FF044510001796F7A6B620E2F
:103F10007927000E7A237B81010E7C6F7B8F120044
:103F200000017B8F04014451EA6A620FE96E000EC2
:103F3000EA2242C4EFFF1200FADA160E5BEF22F01B
:103F400012006ADB040EE1260401420510E1405133
:103F50001F0B00090CE100017B8F030E0401415D82
:103F600004E10001010E876F02D00001876B04019C
:103F7000425141E140511F0B02083DE144510F0BFA
:103F8000000939E000017B8F040144BF05D0B4DA99
:103F9000670EE926000E04D0AFDA6F0EE926000E98
:103FA000E4DA030E415D03E18ADA840E23D0445142
:103FB0000F0B016A700F006E0F0E0122020E00C07F
:103FC000DBFF030E01C0DBFF020EDBCFE9FF030EB8
:103FD000DBCFEAFFEE90ED5244AF06D070DAEF6A25
:103FE000DF746DDA400E06D06ADA880EEF6EDF7489
:103FF00066DAC80EEF6E040EE15C02E2E16AE55299
:1040000067D2800E0401405D3CE10001C00E7B6F71
:1040100004014351030A1EE0010A09E0030A2FE1EB
:1040200000011C0E796F780E7A6F120E22D0C7DA5B
:10403000DD0EF626780EADDA020E0001F76A79255C
:10404000F66E7A51F7220900F5CF7CF00A00F5CF21
:104050007DF01200030E425D0FE2B1DADF0EF626AC
:10406000780E97DA79C0F6FF7AC0F7FF0800F550AE
:1040700000017C6F7D6B120000017B6B1200000160
:104080007B6B120021DA0401486B496B40511F0B16
:10409000020A11E0030A0CE0010A22E100017B8F11
:1040A00004014881000187051BE10401488318D001
:1040B00000017B8F15D000017B8F040144BF05D028
:1040C0001BDA670EE926000E04D016DA6F0EE92619
:1040D000000E4BDAF4D9EF50040B02E0010E486FEA
:1040E00000017BAF07D0480E796F040E7A6F7B8199
:1040F000020E7C6F020EE15C02E2E16AE552E8D159
:104100006D9800017BBF07D080AF02D0BEDA28D007
:104110007DDA840E26D080BF2AD0040140AF23D0A0
:1041200000017C510401465D00017D5104014759A5
:1041300004E246C47CF047C47DF01AD80001010EA9
:10414000786FAAD9CED9800EEF6ED1D9EE52080E73
:10415000EF6ECDD955DACBD9800EEF6E6BDAA6D9DA
:10416000C80EEF6E1200000190DAC80EEF6E12005A
:10417000ABD90001080E7C5D000E7D590DE27CC0BC
:10418000DEFF7DC0DDFF775102E1010E03D0770530
:1041900006E1020E776F03D0080EDE6EDD6A86D967
:1041A000EF9284D9EF9082D9010EDB50EF127ED9C5
:1041B000EE52DFCFEFFF000EDB507C5F010EDB50D5
:1041C0007D5B480E856F040E866F7BB10FD0FED9E4
:1041D0001BE079C0F6FF7AC0F7FF792B000E7A2337
:1041E0000800F550AAD9F3E2DB06F1D7EFD90CE0CD
:1041F00079C0E9FF7AC0EAFF792B000E7A23EF50ED
:104200009CD9F4E2DB06F2D7020EE15C02E2E16A3D
:10421000E5525ED159D96BD9EE52EFCFDFFFDFCF38
:1042200000F000500001815D000E825903E281C060
:10423000DFFF09D0DF50006E016AE850815D816FB9
:1042400001508259826F010EDB6ADF50F36E010E5E
:10425000DBCFF4FFF350F45C10E2010EDB5091D998
:104260007EC0E9FF7FC0EAFF7E2B000E7F23E55270
:10427000E750EF6E010EDB2AE8D7000ED88081559B
:10428000000E82550CE2FAD932D9EF50400B03E10F
:10429000A4D9C80E02D0A1D9880EEF6E0ED09DD938
:1042A000AFD98351841107E005D084C0FAFF000123
:1042B0008351F96EFADF0001809F020EE15C02E299
:1042C000E16AE55205D100017B8F28D9010EE66E27
:1042D000E66AE66A620EE66E000EC1D942C461F07B
:1042E0000401425104E10001100E606F1200000150
:1042F000200E606F1CD9150E5BEF22F0E5D8000E82
:10430000DE6E040EDD6E00D9040DF350006E016AFE
:10431000020E0F0B05E0D89001320032E806FBE1F7
:10432000D89000360136D89000360136D9CFE9FF53
:10433000DACFEAFF0050EE260150ED22C0D8EF9E02
:10434000FD0EDB5002E17AD901D07DD9EA22DECF21
:10435000EEFFDDCFEDFFB3D8EF9CB1D8040EE92618
:10436000000EEA22EF8C020EE15C02E2E16AE55205
:10437000AFD0AAD8FE0EDB50016A700F006E0F0E90
:10438000FAD89DD8FD0EDBCFEFFFDBA402D0E66AA2
:1043900008D9FD0EDBA203D0010EE66E02D9020E93
:1043A000E15C02E2E16AE55293D08ED8FE0EDB506A
:1043B00004E12CD9840EEF6E05D0A6D813D9A4D869
:1043C000010F10D9020EE15C02E2E16AE55280D0F1
:1043D0007BD8FD0EDB5002E036D901D02FD9C5D8ED
:1043E0006ED85ED9FB0EDBCFEEFFFC0EDBCFEDFF10
:1043F00066D8EE52FA0EDBCFEFFF400E60D8E850E1
:10440000EF16880E5CD8E850EF12FD0EDB5002E08C
:104410001AD901D013D9EA22EF74DECF00F0DDCF34
:1044200001F000C0F3FF01C0F4FF020EE15C02E204
:10443000E16AE5524DD0F0D8010EF36EFC0EDB5070
:1044400004E0D890F336E806FCE1F31C006EFD0EA4
:10445000DBCFE9FFFE0EDBCFEAFF0050EF1611D1F4
:1044600082BC04D06D6A696A0001606B12000001B1
:10447000605111E16D6A696A6DB602D06D86FCD734
:104480000001010E606F160E6F6ED08E3B0E696ECE
:10449000A28AA08AF28E1200A0D8EE52080EEF6E09
:1044A0009CD850EF23F0E66E11EF23F06FC0E9FFC8
:1044B00070C0EAFF1200E66EE66A37EF23F0DECF47
:1044C000E9FFDDCFEAFF1200A7D8020EE1261200B5
:1044D000E16ED7D0FE0EEA6ADB34FE0BEA36E96EF7
:1044E0001200400EEE6E040EED6EEDEF22F063C092
:1044F000E9FF64C0EAFF120044510F0BE96EEA6A5B
:10450000D890E936EA361200FD0EDB50E824026E40
:10451000FE0EDB50040DF35002241200020EE66E74
:10452000E66AE66A710EE66E0F0E2FEF23F0000EBC
:10453000E66EE66AE66EE66A1200E66E85C0E9FFA0
:1045400086C0EAFF852B000E8623E552E750EF6E0A
:10455000DF06010E1200480EEE6E040EED6E120024
:104560005BD8E6521200E5528CD0EA22EECFDEFF95
:10457000EDCFDDFF1200012200C0DEFF01C0DDFF34
:104580001200EA6A480FE96E040EEA22EF50E66E66
:104590001200F7220900F5CF79F00A00F5CF7AF082
:1045A0001200FE0EDBCFE6FFA9DEE552E552120057
:1045B000010EE66EE66A000EE66EE66A12004251F1
:1045C000F66EF76AD890F636F7361200D9CFE9FFC3
:1045D000DACFEAFFEE50ED10120065C0E9FF66C0C9
:1045E000EAFF1200040DF3CF00F0F4CF01F0000E4B
:1045F0000026040EC0DF840E62DFE850EF121200C6
:104600004FD8400EEE6E040EED6E120045DF69DFEE
:104610008C0EEF6E56EF22F0D9CFE6FFE1CFD9FF37
:104620001200680EE66E0F0EE66E05DFE552E552EB
:10463000E55212003BDF34D8ABEF22F04BDF670EC0
:10464000E926000E120046DF6F0EE926000E12006A
:104650004EDFEF503C0BE842E8420D081200E66ED8
:1046600090EC3BF0006E050EE15E0050120086EC0F
:104670003CF0006E060EE15E005012000DDFABEF65
:1046800022F0E552E7CFD9FF1200020E786F0EDF5D
:10469000EE52EF6A0BDFC80EEF6EF0DFEDEF22F0A7
:0A46A000020EE926000EEA221200C5
:0646AA004B9E05D04B9E63
:1046B00043AE02D0436C4B8E43C03DF03C6A4F6A20
:1046C0004E6A860E3E6E3F6A84EF25F04B9E08D000
:1046D0004B9E43AE05D0426C431EE86A43224B8E8C
:1046E00043C03DF042C03CF04F6A4E6A8E0E3E6EB3
:1046F0003F6A84EF25F0497E4B6AC0EC25F0D8EC88
:1047000025F04BB668EF25F04BA20AD04BAA03D098
:104710004BBE68EF25F04BA474EF25F071EF25F048
:104720004BAA05D04BAC74EF25F071EF25F04BA0F0
:104730000AD04BA808D04BBE04D04BA402D07DEFCA
:1047400025F081EF25F04E6A3F6A4950445C4D6E7A
:1047500010E341C04FF042C03CF043C03DF044C0C4
:104760004CF046C041F047C042F048C043F04B3ADD
:1047700009D046C04FF047C03CF048C03DF049C0AA
:104780004CF04D6C4B9E4BBC4B8E4CC03EF04BB036
:10479000B0EF25F01A0E4D60B0EF25F03E6A446A86
:1047A0004BA408D0416C421E431E441EE86A4222BC
:1047B000432244224BAC08D04F6C3C1E3D1E3E1E93
:1047C000E86A3C223D223E22406A4D5207E04434D2
:1047D00043324232413240324D2EF9D741504F26BA
:1047E00042503C2243503D2244503E2240C04EF0B5
:1047F0004B9E3EAE0BD04E6C4F1E3C1E3D1E3E1ED1
:10480000E86A4F223C223D223E224B8E3EA006D03B
:10481000D8803D323C324F324E324C2A4CC03EF0B2
:1048200084EF25F04B6AC0EC25F0D8EC25F04BB6B0
:1048300068EF25F04BA205D04BBA68EF25F06FEF7B
:1048400025F04BBA7BEF25F04BA005D04BB868EFB5
:1048500025F07BEF25F04BB86FEF25F03F6A7F0E18
:1048600044243E6EE86A3F2249503E5EE86A3F5A61
:104870001A0E4C6E446A4E6A4F6A3C6A3D6A465054
:10488000415E4750425A4850435A000E445A09E785
:10489000465041264750422248504322000E4422AF
:1048A00001D04E8AD8904136423643364436D890AD
:1048B0004E364F363C363D364C2EE1D743504210F3
:1048C0004110D8A44E8A84EF25F04B6AC0EC25F045
:1048D000D8EC25F04BB668EF25F04BA205D04BB8CD
:1048E00068EF25F06FEF25F04BAA05D04BB068EFCD
:1048F00025F06FEF25F04BB002D04BA802D07BEF34
:1049000025F03F6A495044243E6EE86A3F227E0EFD
:104910003E5EE86A3F5A4E6A4F6A3C6A3D6A4850BA
:104920004302F4CF3DF0F3CF3CF047504302F35045
:104930004F26F4503C22000E3D2248504202F350D4
:104940004F26F4503C22000E3D2246504302F350C5
:104950004E26F4504F22000E3C223D224750420288
:10496000F3504E26F4504F22000E3C223D22485078
:104970004102F3504E26F4504F22000E3C223D22BD
:1049800046504202F4504E26000E4F223C223D2259
:1049900047504102F4504E26000E4F223C223D2249
:1049A00084EF25F04B6AC0EC25F04BB6DCEF24F029
:1049B0004BA20ED04BB405D07F0E436EFF0E426E5D
:1049C0001FD0800E436E426A1BD0436A426A18D0E1
:1049D0004BB0FBD78F0E4460EDD77E0E4464F5D705
:1049E0008E0E445C05E0D89043324232442AF8D718
:1049F0004BA406D0426C431EE86A432243AEE5D77F
:104A0000120013EC25F04BB6000C4BB0000C4BB46D
:104A1000000C010C13EC25F04BB6000C4BB0000C55
:104A20004BA4000C010C4B6AC0EC25F0D8EC25F02F
:104A30004BB612004BAE08D04BA004D04BA802D00E
:104A40004B8012004B9012004950445C0BE14850DF
:104A5000435C08E14750425C05E14650415C02E19D
:104A60004B801200D8A002D04B8E10D0445049C0C9
:104A700044F0496E435048C043F0486E425047C02E
:104A800042F0476E415046C041F0466E4950445C8A
:104A900010E0FF0F09E04B904BB403D04BAE4B84BA
:104AA00012004BAE4B941200492AD890483247323C
:104AB00046324650415E4750425A4850435A43BEE0
:104AC000EAD7D890413642364336442EF8D7C8D775
:104AD0007F0E446EFF0E436E426E416E12007F0EDB
:104AE0004BBEFF0E446E02D07F0E446E800E436EAE
:104AF000426A416AF3D74BAE04D0800E446E436ADB
:104B0000F7D7446A436AF4D73D503C104F104E101B
:104B1000F8E03FBEF0D73DBE0CD03E503F10EBE07A
:104B2000D8904E364F363C363D363E06D8A03F062E
:104B3000F2D73F50D4E13E28D2E04EAE11D07F0EE6
:104B40004E1402E14FA00CD04F2AE86A3C223D22CD
:104B500007E3D8803D323C324F323E2A3E28BFE048
:104B60003E50C9E04FC041F03CC042F03D34436E7E
:104B70003E30446E4332449E4BBE448E6EEF25F071
:104B80004336443602E34B844B7E06E14B80446A55
:104B9000436A426A416A1200442803E0D8804332E3
:104BA0001200D890433202E14B8212004B86120071
:104BB0004836493602E34B8C4B7E06E14B88496A06
:104BC000486A476A466A1200492803E0D88048329A
:104BD0001200D8904832EAE14B8A12004B9E0CD06A
:104BE0004B9E43AE09D0406C411E421E431EE86AF4
:104BF0004122422243224B8E43C03DF042C03CF052
:104C000041C04FF040C04EF09E0E3E6E3F6A84EFB2
:104C100025F04B6AC0EC25F04BB613EF26F04BA203
:104C20000FD04BB407D07F0E436EFF0E426E416E25
:104C3000406E25D0800E436E01D0436A000EF6D739
:104C40004BB0FBD7406A9F0E4460EBD77E0E4464A6
:104C5000F4D79E0E445C07E0D89043324232413292
:104C60004032442AF6D74BA40AD0406C411E421E63
:104C7000431EE86A41224222432243AEDED712009D
:104C80004A6A48AE49EF26F0476C481EE86A482257
:104C90004A1E43AE51EF26F0426C431EE86A43229F
:104CA0004A1ED4EC3EF043BE61EF26F04AAE000C43
:104CB000426C431EE86A43223E6C3F1EE86A3F2274
:104CC000000C4ABE58EF26F04B88FF0C43C04FF053
:104CD00042C04EF042504702F4CF41F0F3CF40F0D3
:104CE00043504802F4CF43F0F3CF42F04702F35071
:104CF0004126F4504222E86A43224E504802F350C3
:104D00004126F4504222E86A432248AE8CEF26F056
:104D10004E50425E4F50435A4FAE000C4750425ED9
:064D20004850435A000C4C
:0A4D2600D9CFE6FFDACFE6FFE1CFB8
:104D3000D9FFE2CFDAFF220EE12402E3E168E65276
:104D4000E16ED950130FE66E000EDA20E66EA8DA97
:104D500075EC3AF0006E060EE15C02E2E16AE552A3
:104D6000E16E0050E76E0E0EE7CFDBFFDB50840BE9
:104D70000CE0210E0101F56FF66B0F0EDB68100ED3
:104D8000DB68110EDB687F0E6ED08ADA36DA020E2F
:104D900040C0DBFF030E41C0DBFF040E42C0DBFF5F
:104DA000050E43C0DBFF87DA466A100E476E490ED8
:104DB000486E460E14DA0AEC25F0010A32E07BDA7E
:104DC00067DA0DDA12EC24F0BFD9060EDBCF41F022
:104DD000070EDBCF42F0080EDBCF43F0090EDBCF2E
:104DE00044F009EC26F0F0EC25F0AED964DA060EBA
:104DF000DBCF08F0070EDBCF09F0080EDBCF0AF09F
:104E0000090EDBCF0BF044DA496E08C041F009C04F
:104E100042F00AC043F00BC044F048DA7BEC23F0C8
:104E2000C4D9F90EDB5012E00E0EDB040BE1FA0ED2
:104E3000DBCF00F0FB0EDBCF01F0FC0EDBCF02F08E
:104E4000FD0E52D167D9486AF8D947D00E0EDB045F
:104E500019E10F0EDB6A100EDB6A800EF36E110E85
:104E6000F3CFDBFF3F0EF36E120EF3CFDBFF0F0E1F
:104E7000DBCF00F0100EDBCF01F0110EDBCF02F024
:104E8000120E32D1190EDB6A45D9800E486ED5D983
:104E9000006A016A026A3F0E036ED950060FE96E7E
:104EA000000EDA20EA6EEECF41F0EECF42F0EECF08
:104EB00043F0EFCF44F000C046F001C047F002C01D
:104EC00048F003C049F07BEC23F044C0EDFF43C041
:104ED000EDFF42C0EDFF41C0EFFFDF50010B0AE0E4
:104EE000190EDB5002E0000E01D0010EE76E190E24
:104EF000E7CFDBFF8CD9060EDBCF0CF0070EDBCF44
:104F00000DF0080EDBCF0EF0090EDBCF0FF0466A76
:104F1000476A490E486E400E496E0CC041F00DC004
:104F200042F00EC043F00FC044F065EC24F05CD9B1
:104F3000A6D995D97BEC23F077D9060EDBCF14F0F8
:104F4000070EDBCF15F0080EDBCF16F0090EDBCF16
:104F500017F0220E466EAA0E476E7D0E486E3A0E70
:104F6000496E14C041F015C042F016C043F017C09E
:104F700044F065EC24F041C010F042C011F043C091
:104F800012F044C013F0EDD87BEC23F00A0E41C0C0
:104F9000DBFF0B0E42C0DBFF0C0E43C0DBFF0D0E30
:104FA00044C0DBFFD9500A0FE96E000EEAD825D9BC
:104FB00040C000F041C001F042C002F043C003F025
:104FC000466A476A800E486E390E496E40C041F00D
:104FD0004FD90AEC25F0010A13E1D9500A0FE96E06
:104FE000000EDA20EA6E020EEECFDBFF030EEECFEC
:104FF000DBFF040EEECFDBFF050EEECFDBFF68D04C
:10500000E1D80A0EDBCF46F00B0EDBCF47F00C0EDB
:10501000DBCF48F00D0EDBCF49F065EC24F01A0E23
:1050200041C0DBFF1B0E42C0DBFF1C0E43C0DBFF99
:105030001D0E44C0DBFF5B0E416E9C0E426E2E0EB9
:10504000436E360E446E72D8CFD8220E466EB20E24
:10505000476E4F0E486EB90E32D99ED83E0E466E40
:10506000870E476E080E486E3C0E29D9DDD8A40E77
:10507000466EAA0E476E2A0E486EBE0E20D91E0E30
:1050800041C0DBFF1F0E42C0DBFF200E43C0DBFF31
:10509000210E44C0DBFF0A0EDBCF00F00B0EDBCF8E
:1050A00001F00C0EDBCF02F00D0EDBCF03F08AD83F
:1050B0001E0EDBCF46F01F0EDBCF47F0200EDBCFFE
:1050C00048F0210EDBCF49F0F1D87CEC23F06DD80D
:1050D000190EDB5008E09BD8466A476A800E486E7E
:1050E000BF0EF0D803D042D8DBCF03F000C040F0B1
:1050F00001C041F002C042F003C043F0220EE15C67
:1051000002E2E16AE552E16EE552E5CFDAFFE7CF70
:10511000D9FF12007CD8830E466EF90E476EA20EA0
:10512000486E3E0ECFD8466A476A12001A0EDBCF91
:1051300046F01B0EDBCF47F01C0EDBCF48F01D0EF8
:10514000DBCF49F065EF24F0060E41C0DBFF070E10
:1051500042C0DBFF080E43C0DBFF090E44C0DBFF8B
:1051600012008DD800C041F038EF29F0020EDBCFDD
:1051700000F0030EDBCF01F0040EDBCF02F0050ED2
:105180001200DA20EA6EEECFE6FFEECFE6FFEECFBA
:10519000E6FFEFCFE6FF120041C004F042C005F089
:1051A00043C006F044C007F01200020E41C0DBFF0E
:1051B000030E42C0DBFF040E43C0DBFF050E44C0FC
:1051C000DBFF12000A0EDBCF41F00B0EDBCF42F00B
:1051D0000C0EDBCF43F00D0EDBCF44F01200496E16
:1051E00000C041F038EF29F041C008F042C009F09A
:1051F00043C00AF044C00BF01200F0EC3DF0E55261
:10520000E552E552E5521200496E7CEF23F0020EA2
:10521000DBCF04F0030EDBCF05F0040EDBCF06F08E
:10522000050EDBCF07F0120041C000F042C001F0D4
:1052300043C002F044C003F012003F0EE5DFD2ECA1
:1052400024F042C0DEFF43C0DDFF000EDFCF42F09E
:10525000010EDBCF43F068EC23F0A4EF28F004C08C
:1052600041F005C042F006C043F007C044F0120010
:1052700001C042F002C043F003C044F0120041C03C
:1052800046F042C047F043C048F044C049F0120025
:10529000DB0E466E0F0E476EC90E486E400E1200B2
:1052A000D950FA0FE96EFF0EC1EF28F065EC24F03B
:1052B00073DFB1EF28F05ADFDBCF03F01200A4DF79
:1052C00096EF28F0496ECBDF65EC24F014EF29F05F
:1052D000D9CFE6FFDACFE6FFE1CFD9FFE2CFDAFFA1
:1052E0001D0EE12402E3E168E652E16E67DAFA0E90
:1052F000DBCFEEFFFB0EDBCFEEFFFC0EDBCFEEFFD6
:10530000FD0EDBCFEEFFD950040FE66E000EDA2063
:10531000E66E0BDA75EC3AF0006E060EE15C02E226
:10532000E16AE552E16E0050E76E0B0EE7CFDBFF5E
:10533000DB50800807E10A0EDB6ADE68DE68DE68A3
:105340007F0E13D00B0EDB0405E1DE6ADE6ADE6A37
:10535000DD6AA6D10B0EDB50040809E1DB0EDE6E20
:105360000F0EDE6EC90EDE6E3F0EDD6E99D1DDD9F9
:105370001EDA40C0DEFF41C0DEFF42C0DEFF43C098
:10538000DDFFDD52DD52DBD90DDA3F0E20DA23E1FD
:10539000416A426A800E436E3F0E446EDECF46F095
:1053A000DECF47F0DECF48F0DDCF49F0DD52DD52F1
:1053B00012EC24F041C0DFFF010E42C0DBFF020E01
:1053C00043C0DBFF030E44C0DBFF020EF36E0C0E86
:1053D000F3CFDBFF02D00C0EDB6AB1D9A30E466E11
:1053E000300E476E890E486E3E0EF1D96CE1AF0E5D
:1053F000416E670E426E3B0E436E3F0E446EB2D955
:1054000041C008F042C009F043C00AF044C00BF0AC
:10541000C9D93F0E496E7BEC23F041C004F042C075
:1054200005F043C006F044C007F0C8D9EECF0CF039
:10543000EECF0DF0EECF0EF0EFCF0FF00CC046F038
:105440000DC047F00EC048F00FC049F07CEC23F0CF
:1054500080D9D70E146EB30E156EDD0E166E3F0E8C
:10546000176EACD9EECF18F0EECF19F0EECF1AF0E0
:10547000EFCF1BF018C046F019C047F01AC048F033
:105480001BC049F014C041F015C042F016C043F0F3
:10549000446E7CEC23F041C010F042C011F043C0D8
:1054A00012F044C013F041C046F042C047F043C080
:1054B00048F044C049F035D912EC24F05FD9DD52F0
:1054C000DD520C0EDB2A31D972D940C000F041C048
:1054D00001F042C002F043C003F064D9390E496EB6
:1054E00040C041F07AD90AEC25F0010A01E1B5D0BB
:1054F0004ED938D90D0E41C0DBFF0E0E42C0DBFF86
:105500000F0E43C0DBFF100E44C0DBFF910E416E57
:10551000860E426E500E436EBD0E446E0D0EDBCFF6
:1055200046F00E0EDBCF47F00F0EDBCF48F0100E2B
:105530004AD90FD9F60E466E100E476EF10E486E20
:10554000BE0E496E7CEC23F0110E41C0DBFF120E43
:1055500042C0DBFF130E43C0DBFF140E44C0DBFF71
:105560000D0EDBCF00F00E0EDBCF01F00F0EDBCF08
:1055700002F0100EDBCF03F0D30E466ECC0E476E5A
:10558000B40E486E3F0E496ECCD87CEC23F0150E5D
:1055900041C0DBFF160E42C0DBFF170E43C0DBFF2E
:1055A000180E44C0DBFF0D0EDBCF41F00E0EDBCF3B
:1055B00042F00F0EDBCF43F0100EDBCF44F0110EA4
:1055C000DBCF46F0120EDBCF47F0130EDBCF48F0F7
:1055D000140EF9D8150EDBCF46F0160EDBCF47F0D0
:1055E000170EDBCF48F0180EDBCF49F012EC24F099
:1055F000B0D8190E41C0DBFF1A0E42C0DBFF1B0EF4
:1056000043C0DBFF1C0E44C0DBFFC1D8190EDBCF4B
:1056100046F01A0EDBCF47F01B0EDBCF48F01C0E16
:10562000D2D897D8CBD8EECF41F0EECF42F0EECF24
:1056300043F0EFCF44F000C046F001C047F002C095
:1056400048F003C049F07CEC23F044C0EDFF43C0B8
:10565000EDFF42C0EDFF41C0EFFF0C0EDB0409E19E
:10566000920E006E0A0E016E060E3FD87CEC23F0FF
:1056700016D00C0EDB50020806E1DB0E006E0F0E9A
:10568000016EC90E09D00C0EDB5003080BE1920E1F
:10569000006E0A0E016E860E28D87BEC23F06ED8C1
:1056A000DD52DD520A0EDB500AE049D87BD8BF0E2E
:1056B000496E37D865EC24F061D8DD52DD52DECF7B
:1056C00040F0DECF41F0DECF42F0DDCF43F0DD52DF
:1056D000DD521D0EE15C02E2E16AE552E16EE55247
:1056E000E5CFDAFFE7CFD9FF1200026E3F0E036E5F
:1056F00065D8EECF04F0EECF05F0EECF06F0EFCF99
:1057000007F004C046F005C047F006C048F007C0E7
:1057100049F000C041F001C042F002C043F0446EC5
:10572000120000C041F0EDEF2BF048D8EECFE6FFBD
:10573000EECFE6FFEECFE6FFEFCFE6FF12003ED85A
:10574000EECF00F0EECF01F0EECF02F0EFCF03F09E
:10575000120041C000F042C001F043C002F044C05A
:1057600003F01200000EDFCF46F0010EDBCF47F052
:10577000020EDBCF48F0030EE3EF2BF041C0DEFF5B
:1057800042C0DEFF43C0DEFF44C0DDFF1200DECFBB
:1057900041F0DECF42F0DECF43F0DDCF44F0DD520A
:1057A000DD521200466A476A800E486E1200F0EC25
:1057B0003DF0E552E552E552E5521200D9CFE9FF3E
:1057C000DACFEAFF1200DBCF49F065EF24F0496E33
:1057D000A8DF01EC25F0010A120001C042F002C06E
:0857E00043F003C044F0120085
:0857E800D9CFE6FFDACFE6FF9E
:1057F000E1CFD9FFE2CFDAFF210EE12402E3E16835
:10580000E652E16ED950FA0FE96EFF0E04DAD95074
:10581000050FE66E000EDA20E66ED950010FE96E34
:10582000000EEED975EC3AF0006E060EE15C02E275
:10583000E16AE552E16E0050DF6E840EDF1405E090
:10584000210E0101F56FF66B0FDAD950FA0FE96EF0
:10585000FF0ED6D9F0EC3DF0E552E552E552E552A7
:10586000190E40C0DBFF1A0E41C0DBFF1B0E42C009
:10587000DBFF1C0E43C0DBFF95D902DA390E36DAA6
:105880000AEC25F0010A07E108DAD950190FE96E90
:10589000000EC1D931D186D9F3D91EDA06E1E4D997
:1058A000210E0101F56FF66B52D17CD9466A476A29
:1058B000486A12DA01E079D0F90EDBCFE6FF010E7B
:1058C000E552D880E754E76E0C0EE7CFDBFF006AA5
:1058D000016A026A3F0E036E086A096A800E0A6E48
:1058E0003F0E0B6E190EDBCF0CF01A0EDBCF0DF056
:1058F0001B0EDBCF0EF01C0EDBCF0FF00CC046F002
:105900000DC047F00EC048F00FC049F008C041F08C
:1059100009C042F00AC043F00BC044F07BEC23F016
:10592000C3D988D944C0DBFF006A016A026AC00E8D
:10593000036E00C0E6FF01C0E6FF02C0E6FFE66EB0
:10594000D9501D0FE96E000E5BD979EC2EF0E552AF
:10595000E552E552E552E552E7CF03F0E552E7CFD5
:1059600002F0E552E7CF01F0E552E7CF00F040C08A
:1059700004F041C005F042C006F043C007F040C04B
:1059800046F041C047F042C048F043C049F0F4D867
:1059900065EC24F0190E41C0DBFF1A0E42C0DBFF9C
:1059A0001B0E43C0DBFF1C0E0FD077D950D9190E48
:1059B000DBCF46F01A0EDBCF47F01B0EDBCF48F0F3
:1059C0001C0EDBCF49F036D944C0DBFF1D0EDBCF08
:1059D00004F01E0EDBCF05F01F0EDBCF06F0200E0D
:1059E000DBCF07F00B0E466E8D0E476EB10E486E84
:1059F000C00E496E04C041F005C042F006C043F03D
:105A000007C044F07CEC23F0E7D8F00E466E500E51
:105A1000476EB30E486E400E496E7CEC23F0110EBB
:105A200041C0DBFF120E42C0DBFF130E43C0DBFFA1
:105A3000140E44C0DBFF650E416E200E426E010E57
:105A4000436EBF0E446EC8D86B0E466E160E476E80
:105A50006F0E486E3F0E496E7CEC23F00D0E41C078
:105A6000DBFF0E0E42C0DBFF0F0E43C0DBFF100E4C
:105A700044C0DBFF1D0EDBCF41F01E0EDBCF42F03A
:105A80001F0EDBCF43F0200EDBCF44F00D0EDBCF3B
:105A900046F00E0EDBCF47F00F0EDBCF48F0100EB6
:105AA00021D9110EDBCF46F0120EDBCF47F0130EDB
:105AB000DBCF48F0140EDBCF49F012EC24F0150ECA
:105AC00041C0DBFF160E42C0DBFF170E43C0DBFFF9
:105AD000180E44C0DBFF66D8BAD8150EDBCF46F0EF
:105AE000160EDBCF47F0170EDBCF48F0180EFAD8B2
:105AF000DBD87CEC23F063D8F90EDB500EE10C0E02
:105B0000DB5006E042D8C1D8F1D87CEC23F057D85E
:105B10000B0EDB501CE0DAD819D00B0EDB500CE07A
:105B20000C0EDB500EE131D8DB0E466E0F0E476EC9
:105B3000490E486E400E07D0C9D841D80C0EDB5034
:105B400006E023D8A2D8D2D87CEC23F038D81DD8D0
:105B500000C040F001C041F002C042F003C043F079
:105B6000210EE15C02E2E16AE552E16EE552E5CF29
:105B7000DAFFE7CFD9FF120000C041F001C042F0C8
:105B800002C043F003C044F01200010EDBCF00F06E
:105B9000020EDBCF01F0030EDBCF02F0040EDBCFF1
:105BA00003F01200190EDBCF00F01A0EDBCF01F06C
:105BB0001B0EDBCF02F01C0EDBCF03F01200010E38
:105BC00041C0DBFF020E42C0DBFF030E43C0DBFF20
:105BD000040E44C0DBFF12001D0EDBCF46F01E0E8C
:105BE000DBCF47F01F0EDBCF48F0200E7BD841C043
:105BF00000F042C001F043C002F044C003F01200C4
:105C0000DA20EA6EEECFE6FFEECFE6FFEECFE6FF5C
:105C1000EFCFE6FF1200DA20EA6E010EEECFDBFFD7
:105C2000020EEECFDBFF030EEECFDBFF040EEECF56
:105C3000DBFF120065EC24F01D0E41C0DBFF1E0EE1
:105C400042C0DBFF1F0E43C0DBFF200E1200190E07
:105C5000DBCF41F01A0EDBCF42F01B0EDBCF43F05F
:105C60001C0EDBCF44F01200010EDB68020EDB6875
:105C7000030EDB687F0EF36E040EF3CFDBFF120022
:105C8000466A476A800E486E1200DB0E466E0F0EA3
:105C9000476EC90E486E3F0E1200F90EDB50E76EDC
:105CA0000C0EE7CFDBFF120041C004F042C005F04C
:105CB00043C006F044C007F041C046F042C047F080
:105CC00043C048F044C049F0BCEF2DF05EDFD8DFA0
:105CD000BF0E0CD865EF24F03F0E08D801EC25F07C
:105CE000010A1200DBCF49F065EF24F0496EBCEFEA
:025CF0002DF095
:0E5CF200D9CFE6FFDACFE6FFE1CFD9FFE2CF50
:105D0000DAFF240EE12402E3E168E652E16ED950A5
:105D1000FA0FE96EFF0EDA20EA6E020EEECFDBFF1D
:105D2000030EEECFDBFF040EEECFDBFF050EEECF52
:105D3000DBFFE8D9F2D975EC3AF0006E060EE15CB3
:105D400002E2E16AE552E16E0050E76E0D0EE7CF28
:105D5000DBFFDB50800815E0A0D9466A476A486A35
:105D6000496A00C041F001C042F002C043F003C0E4
:105D700044F00AEC25F0010A10E1210E0101F56F53
:105D8000F66B020EDB68030EDB68040EDB687F0E29
:105D9000F36E050EF3CFDBFF66D10D0EDB50050B66
:105DA00001E061D10A0EDBCF00F00B0EDBCF01F07A
:105DB000830E0026FF0E012200C0DEFF01C0DDFFC2
:105DC000D950060F65D976D9DF50010B0FE0DF06F9
:105DD000010E01E2DB06D950180F5AD9D890EF36E0
:105DE000010EEB36020EEB36030EEB36D9CFE9FF90
:105DF000DACFEAFF020E476E486AEECF42F0EDCFEF
:105E000043F040EC26F042C0EEFF43C0EDFF140E1D
:105E1000DB6A150EDB6A160EDB6A170EDB6A1C0ED8
:105E2000DB6A1D0EDB6A1E0EDB6A010EF36E1F0EAF
:105E3000F3CFDBFF010EF36E0E0EF3CFDBFF0F0E81
:105E4000DB6A0E0EDBCF00F00F0EDBCF01F0D89037
:105E5000015004E61A0E005C000E015801E398D0D0
:105E6000180EDBCF00F0190EDBCF01F01A0EDBCFDE
:105E700002F01B0EDBCF03F0010E1F0B07E0D890E2
:105E80000036013602360336E806F9E1180E00C086
:105E9000DBFF190E01C0DBFF1A0E02C0DBFF1B0E79
:105EA00003C0DBFF140EDBCF08F0150EDBCF09F0CB
:105EB000160EDBCF0AF0170EDBCF0BF0010E1F0B17
:105EC00007E0D890083609360A360B36E806F9E1BD
:105ED000D9501C0FDDD80850EE24046E0950EE2076
:105EE000056E0A50EE20066E0B50EE20076ED9505C
:105EF000180FCED80450EE5C006E0550EE58016EBF
:105F00000650EE58026E0750EE58036E200E00C089
:105F1000DBFF210E01C0DBFF220E02C0DBFF230EE0
:105F200003C0DBFF200EDBCF41F0210EDBCF42F0C0
:105F3000220EDBCF43F0230EDBCF44F04434000EBF
:105F4000441809E6D880000E4154000E4254000E59
:105F50004354000E445411E2D950200F99D8AAD8C6
:105F6000D8D81C0EDB50EE121D0EDB50EE121E0EAA
:105F7000DB50EE121F0EDB50EE12D9501C0F88D8EA
:105F8000AFD80E0EDB2A0F0E01E25BD7DB2A59D702
:105F9000C9D8100E00C0DBFF110E01C0DBFF180EC8
:105FA000DBCF42F0190EDBCF43F0120E42C0DBFF15
:105FB000130E43C0DBFFADD893D8D950100F68D86B
:105FC000EE50ED1012E0D950120F62D8EE50ED10E5
:105FD00006E1A8D8005001100210031006E099D87D
:105FE000EE2A000EEE22EE22EE220C0EDB6A91D893
:105FF000060EEECFDBFF070EEECFDBFF080EEECF77
:10600000DBFF090EEECFDBFF7E0EF36E0A0EF3CF41
:10601000DBFF0B0EDB6AD950020FE66E000EDA20B2
:10602000E66E70D803EC3BF0E552E552E552E552DE
:10603000DECFE6FFDDCFE6FF70D8B1EC38F0006EC2
:10604000060EE15C02E2E16AE552E16E0050020EEA
:1060500040C0DBFF030E41C0DBFF040E42C0DBFF8C
:10606000050E43C0DBFF19D800C040F001C041F06D
:1060700002C042F003C043F0240EE15C02E2E16A98
:10608000E552E16EE552E5CFDAFFE7CFD9FF120026
:10609000E96E000EDA20EA6E1200020EDBCF00F08D
:1060A000030EDBCF01F0040EDBCF02F0050EDBCFD9
:1060B00003F01200180EEECFDBFF190EEECFDBFF60
:1060C0001A0EEECFDBFF1B0EEECFDBFF1200EECF82
:1060D000E6FFEECFE6FFEECFE6FFEFCFE6FF1200E2
:1060E000D890030EEB32020EEB32010EEB32EF32A0
:1060F0001200EE500016EE500116EE500216EE5051
:1061000003161200D950060FE66E000EDA20E66E76
:106110001200D950140F48EF30F0D950020FB8DFF9
:1061200067EF30F0010E006E016A026A036AF1DF68
:0461300079EF30F0E3
:0C613400040140511F0B010801E01200A3
:106140004051600BE842E842E842E842E842010878
:1061500001E01200445103E0440501E01200415106
:10616000220A31E0030A24E0010A15E0210A0DE0C9
:10617000010A01E012000001A60E796F000E7A6F8D
:10618000080E7C6F7D6B7B8121D00001A60E796F9C
:10619000000E7A6F1BD046C481F047C482F0000124
:1061A000880E7E6F050E7F6F836B846B808F12006D
:1061B0000001880E796F050E7A6F070E7C6F7D6B7C
:1061C000C10E7B6F120042C4A1F000017B8F120050
:1061D0000501886B4B0E896F8A6B8B6B8C6B8D6B9B
:1061E000080E8E6F0001966B956B1A0EE66E020E0E
:1061F000E66EB9EC21F0E552E5521E0EE66E030E96
:10620000E66EB9EC21F0E552E55245D900019F6BED
:10621000A06B12002BD90001956B9D519E1102E1DC
:10622000000E05D033D9EF50800B01E0010E0009BC
:106230002DE1FC0EDBCF00F029D9EE52EF50D880D3
:10624000005405E223D9EE52FC0EEFCFDBFF956B35
:10625000FC0EDB50955D19E29551EA6A080FE96E74
:10626000050EEA22EF50E66E9551E76EFD0EDBCF8C
:10627000E9FFFE0EDBCFEAFFE750E926000EEA2237
:10628000E552E750EF6E952BE3D705D90001955104
:10629000F2D0ECD8A09A0001965107E1E0D8FC0EAC
:1062A000DBCF9BF0010E9C6F966FA08AE4D008D9DB
:1062B00017E1BAD8E4D802E101500BE0010EDBCFC0
:1062C000E9FFDB2A020EDBCFEAFF01E3DB2AEF5016
:1062D000F1E1C5D8DFCF9BF00001010E9C6F966FF6
:1062E000A08A030EE15C02E2E16AE552E16EC3D0EE
:1062F000E7D818E199D8C3D802E101500CE0010EAB
:10630000DBCFF6FFDB2A020EDBCFF7FF01E3DB2A50
:106310000800F550F0E1A3D8DFCF9BF000019C6BA3
:10632000010E966FA08A030EE15C02E2E16AE5527B
:10633000E16EA1D09BD8020EE126A09A00019F51E8
:10634000A01102E1000E08D09FC0E9FFA0C0EAFF43
:10635000EF50800B01E0010E000906E1030E965D8F
:1063600001E1966B965102E1A08A4ED0020E965D35
:1063700009E1E66A000EE66EE66A9AD80001030EAD
:10638000966F41D096053FE1400E006E016A9B5129
:10639000005C000E015803E2400EDF6E02D09BC08D
:1063A000DFFFDF509B5D9B6F480E996F050E9A6F64
:1063B000010EDFCFDBFF9C510BE1010EDB5012E041
:1063C00097C0F6FF98C0F7FF0800F5503BD8F5D707
:1063D000010EDB5007E097C0E9FF98C0EAFFEF50DD
:1063E00031D8F6D700019B5107E1400EDF5C02E196
:1063F000020E01D0030E966FDFCFE6FF480EE66E69
:10640000050EE66E55D8A08A020EE15C02E2E16A52
:10641000E552E16E30D0030EE66EE8EC21F0006E3E
:10642000050EE15E00501200DF6AFD0EDBCF42F088
:10643000FE0EDBCF43F0DE5242C0DEFF43C0DDFF85
:10644000DD52120099C0E9FF9AC0EAFFEF6E992B66
:10645000000E9A23972B9823010EDB061200FD0EE7
:10646000DBCF97F0FE0EDBCF98F01200D9CFE6FF1E
:10647000E1CFD9FF1200E552E7CFD9FF1200DF2AA2
:10648000DF50006E016AFF0E001812009DC0E9FF88
:106490009EC0EAFF1200400EE66E080EE66E050E84
:1064A000E66EE66AB8DFF3CF9DF0F4CF9EF01200FF
:1064B000010EE66EB0DFF3CF9FF0F4CFA0F0120034
:0E64C000D5DF030EE126A09A000196511200CE
:0264CE0096D95D
:1064D000E652C69EC950DF6EC69EFE0EDB50C96EE8
:1064E000C6BEFAD7C7A0FED7C950DF6EDF50E5524F
:1064F0008AD184D9A1D9020EDF5C03E1030E68D9E9
:10650000E552010EDB5016E0020E62D9E552800E14
:10651000E66E64D9DBAC02D082D902D0DE52DD6EE9
:10652000020EDF5C04E0DFCFE6FFCDD8E9D7E66AF4
:1065300091D9E7D7020EE15C02E2E16AE552E16E31
:1065400062D15CD964D908E07FD961D9E66ED1DF28
:106550006ED9F8E3DB2AF6D756D150D9E65245D9A1
:1065600006E07BD9C6DF63D9FAE3DB2AF8D7E55228
:106570004AD144D9FE0EDB50090802E17C0E01D05D
:10658000FE0EE66EB6DFE552FE0EDBCFE6FFB1DFB4
:10659000E55239D133D950D9DF0403E1030E18D9BC
:1065A000E552010EDB5016E0010EE66E53D9800E67
:1065B000E66E14D9DBAC02D032D902D0DE52DD6EE9
:1065C000DF0404E0DFCFE6FF7ED8EAD7030EE66EF5
:1065D00041D9E7D7020EE15C02E2E16AE552E16EE1
:1065E00012D10CD9020EE126F9C1DFFFDF0403E16D
:1065F000030EEED8E552010EE66E2CD9E66AEED80F
:10660000DB50006E016AE850800B03E0E66AE6D8D2
:1066100002D0010EDB6ADF0403E0DFCFE6FF02D029
:10662000030EE66E17D9010EDB50006E020EE15C20
:1066300002E2E16AE552E16E0050E5D0DFD8E7D82A
:1066400008E002D9E4D8E66EA5DFF1D8F8E3DB2A4A
:10665000F6D7D9D0D3D8E652C8D806E0FED89ADF0C
:10666000E6D8FAE3DB2AF8D7E552CDD0C7D8030E37
:10667000E126F9C1DFFFDF5003E1030EA9D8E5529F
:10668000E66AE8D8E66AAAD8DBAE08D0E66A1FDF79
:10669000E552E76E020EE7CFDBFF02D0020EDB6AA7
:1066A000DF5003E0DFCFE6FF02D0030EE66ED2D864
:1066B000020EDB50006E030EE15C02E2E16AE5527D
:1066C000E16E0050A0D0D9CFE6FFE1CFD9FFFE0E9A
:1066D000DB50030A10E0010A0BE0030A06E0010A9E
:1066E00001E00CD08B948B920BD08B828B9408D0D2
:1066F0008B928B8405D08B848B8202D0000000D0DB
:10670000FE0EDBCFF9F1E552E7CFD9FF1200D9CF6A
:10671000E6FFE1CFD9FFE652DF6A0101F95109E155
:10672000010EE66ED0DFE5520A0EE66EFCEC3EF09E
:10673000E552DF6ADFCF00F0040EE76E0018E8AE26
:1067400002D0E73402D0E750005C3AE2DFCFE6FF48
:10675000BADFE5520A0EE66EFCEC3EF0E552DF5081
:10676000030A21E0010A16E0030A0CE0010A01E035
:1067700023D0C40EE66EABDEE5520B0EE66EA7DE4E
:10678000E5521CD0C00EE66EA2DEE552E66A9FDE40
:10679000E55214D0C00EE66E9ADEE5520A0EE66EA1
:1067A00096DEE5520BD0C00EE66E91DEE5520A0E83
:1067B000E66E8DDEE55202D0000000D0DF2ABAD7A7
:1067C000E66A81DFE552E552E552E7CFD9FF1200D4
:1067D000E66E40D8010EE66EFCEF3EF078DEE55244
:1067E000E76E010EE7CFDBFF1200FD0EDBCFF6FFF9
:1067F000FE0EDBCFF7FF0800F5501200D9CFE6FF01
:10680000E1CFD9FF1200E552E7CFD9FF1200FD0E0C
:10681000DBCFE9FFFE0EDBCFEAFFEF501200FE0EEA
:10682000DBCFE6FF54DEE552010EDB6A1200E552D3
:10683000FD0EDB2AFE0E1200020EE126F9C1DFFF7B
:10684000DE52010EDD6E1200010EE66EBDEC3EF072
:10685000E552120038DFE5521200F6DFC6DFDF6EC8
:06686000DFCFE6FF12008D
:0A686600D9CFE6FFDACFE6FFE1CF5D
:10687000D9FFE2CFDAFF100EE12402E3E168E6522D
:10688000E16E0F0EDB6AD950020FE66E000EDA20C1
:10689000E66ED950060FE66E000EDA20E66EFC0EAC
:1068A000DBCFE6FFFD0EDBCFE6FF11EC36F0006E2E
:1068B000060EE15C02E2E16AE552E16E0050F3CFC0
:1068C000DEFFF4CFDDFFDECFE9FFDDCFEAFFEF50E3
:1068D000DF0B450814E1DF2A010E01E3DB2ADECFDE
:1068E000E6FFDDCFE6FF9CEC35F0E552E552060E03
:1068F000DBCFE7FFF350E726060EE7CFDBFF020E04
:10690000DBCF00F0030EDBCF01F0040EDBCF02F093
:10691000050E03D9F0EC25F0F3D8060EDB5001E1AB
:1069200090D006D900340BE3010EF36E0F0EF3CFB7
:10693000DBFF060EDB50FF0D060EF3CFDBFF0B0E69
:10694000DB6A0C0EDB6A800EF36E0D0EF3CFDBFFFD
:106950003F0EF36E0E0EF3CFDBFFEAD8140EE76E98
:106960000018E8AE02D0E73402D0E750005C0BE339
:1069700097D8EC0E466E780E476EAD0E486E600EE0
:1069800077D8140EB3D8D4D80A0EE76E0018E8AE44
:1069900002D0E73402D0E750005C0BE381D8F90E57
:1069A000466E020E476E150E486E500E61D80A0EE6
:1069B0009DD8BED8050EE76E0018E8AE02D0E734C9
:1069C00002D0E750005C0AE36BD8466A500E476E6F
:1069D000C30E486E470E4CD8050E88D8A9D8020EB3
:1069E000E76E0018E8AE02D0E73402D0E750005C52
:1069F00009E356D8466A476AC80E486E420E38D830
:106A0000020EEBD795D8010EE76E0018E8AE02D063
:106A1000E73402D0E750005C09E342D8466A476A8F
:106A2000200E486E410E24D8060EDB060F0EDB50FA
:106A300004E043D812EC24F003D03FD865EC24F0F6
:106A40005FD8070EDBCF00F0080EDBCF01F0090E98
:106A5000DBCF02F00A0E61D8100EE15C02E2E16ABF
:106A6000E552E16EE552E5CFDAFFE7CFD9FF12003C
:106A7000496E00C041F001C042F002C043F003C0C3
:106A800044F065EC24F00B0E41C0DBFF0C0E42C05D
:106A9000DBFF0D0E43C0DBFF0E0E44C0DBFF120018
